{
  "contractName": "Notes",
  "abi": [
    {
      "inputs": [],
      "stateMutability": "nonpayable",
      "type": "constructor"
    },
    {
      "anonymous": false,
      "inputs": [
        {
          "indexed": false,
          "internalType": "string",
          "name": "",
          "type": "string"
        }
      ],
      "name": "revision_asked",
      "type": "event"
    },
    {
      "anonymous": false,
      "inputs": [
        {
          "indexed": false,
          "internalType": "bytes32",
          "name": "",
          "type": "bytes32"
        }
      ],
      "name": "student_evaluated",
      "type": "event"
    },
    {
      "inputs": [],
      "name": "teacher",
      "outputs": [
        {
          "internalType": "address",
          "name": "",
          "type": "address"
        }
      ],
      "stateMutability": "view",
      "type": "function",
      "constant": true
    },
    {
      "inputs": [
        {
          "internalType": "string",
          "name": "_subject",
          "type": "string"
        },
        {
          "internalType": "string",
          "name": "_id",
          "type": "string"
        },
        {
          "internalType": "uint256",
          "name": "_note",
          "type": "uint256"
        }
      ],
      "name": "Evaluate",
      "outputs": [],
      "stateMutability": "nonpayable",
      "type": "function"
    },
    {
      "inputs": [
        {
          "internalType": "string",
          "name": "_subject",
          "type": "string"
        },
        {
          "internalType": "string",
          "name": "_student_id",
          "type": "string"
        }
      ],
      "name": "SeeNotes",
      "outputs": [
        {
          "internalType": "uint256",
          "name": "",
          "type": "uint256"
        }
      ],
      "stateMutability": "view",
      "type": "function",
      "constant": true
    },
    {
      "inputs": [
        {
          "internalType": "string",
          "name": "_subject",
          "type": "string"
        },
        {
          "internalType": "string",
          "name": "_student_id",
          "type": "string"
        }
      ],
      "name": "Revision",
      "outputs": [],
      "stateMutability": "nonpayable",
      "type": "function"
    },
    {
      "inputs": [
        {
          "internalType": "string",
          "name": "_subject",
          "type": "string"
        }
      ],
      "name": "SeeRevisions",
      "outputs": [
        {
          "internalType": "string[]",
          "name": "",
          "type": "string[]"
        }
      ],
      "stateMutability": "view",
      "type": "function",
      "constant": true
    }
  ],
  "bytecode": "0x608060405234801561001057600080fd5b50336000806101000a81548173ffffffffffffffffffffffffffffffffffffffff021916908373ffffffffffffffffffffffffffffffffffffffff160217905550610cdc806100606000396000f3fe608060405234801561001057600080fd5b50600436106100575760003560e01c8063112b46591461005c5780633dd9efcd1461008c578063b46bff89146100a8578063c5bdbd11146100c6578063df3bba9f146100f6575b600080fd5b61007660048036038101906100719190610732565b610112565b6040516100839190610b11565b60405180910390f35b6100a660048036038101906100a1919061079e565b6101f2565b005b6100b0610305565b6040516100bd9190610a57565b60405180910390f35b6100e060048036038101906100db91906106f1565b61032a565b6040516100ed9190610a72565b60405180910390f35b610110600480360381019061010b9190610732565b6104c2565b005b600082826000828260405160200161012b929190610a33565b6040516020818303038152906040528051906020012090506000600160008381526020019081526020016000205490506000811161019e576040517f08c379a000000000000000000000000000000000000000000000000000000000815260040161019590610af1565b60405180910390fd5b600087876040516020016101b3929190610a33565b60405160208183030381529060405280519060200120905060006001600083815260200190815260200160002054905080965050505050505092915050565b338073ffffffffffffffffffffffffffffffffffffffff166000809054906101000a900473ffffffffffffffffffffffffffffffffffffffff1673ffffffffffffffffffffffffffffffffffffffff1614610282576040517f08c379a000000000000000000000000000000000000000000000000000000000815260040161027990610ad1565b60405180910390fd5b60008484604051602001610297929190610a33565b6040516020818303038152906040528051906020012090508260016000838152602001908152602001600020819055507fd31464182d979935ef3f55c3944616a86bb8cd125dba81f7e6042d425225706d816040516102f69190610a94565b60405180910390a15050505050565b6000809054906101000a900473ffffffffffffffffffffffffffffffffffffffff1681565b6060338073ffffffffffffffffffffffffffffffffffffffff166000809054906101000a900473ffffffffffffffffffffffffffffffffffffffff1673ffffffffffffffffffffffffffffffffffffffff16146103bc576040517f08c379a00000000000000000000000000000000000000000000000000000000081526004016103b390610ad1565b60405180910390fd5b6002836040516103cc9190610a1c565b9081526020016040518091039020805480602002602001604051908101604052809291908181526020016000905b828210156104b6578382906000526020600020018054600181600116156101000203166002900480601f0160208091040260200160405190810160405280929190818152602001828054600181600116156101000203166002900480156104a25780601f10610477576101008083540402835291602001916104a2565b820191906000526020600020905b81548152906001019060200180831161048557829003601f168201915b5050505050815260200190600101906103fa565b50505050915050919050565b8181600082826040516020016104d9929190610a33565b6040516020818303038152906040528051906020012090506000600160008381526020019081526020016000205490506000811161054c576040517f08c379a000000000000000000000000000000000000000000000000000000000815260040161054390610af1565b60405180910390fd5b60028660405161055c9190610a1c565b9081526020016040518091039020859080600181540180825580915050600190039060005260206000200160009091909190915090805190602001906105a39291906105e3565b507f7e62a79b0efe2461ea770244fa2b370d88cc4f7876fa0398cb508dd0398769c6856040516105d39190610aaf565b60405180910390a1505050505050565b828054600181600116156101000203166002900490600052602060002090601f016020900481019282601f1061062457805160ff1916838001178555610652565b82800160010185558215610652579182015b82811115610651578251825591602001919060010190610636565b5b50905061065f9190610663565b5090565b61068591905b80821115610681576000816000905550600101610669565b5090565b90565b600082601f83011261069957600080fd5b81356106ac6106a782610b59565b610b2c565b915080825260208301602083018583830111156106c857600080fd5b6106d3838284610c3c565b50505092915050565b6000813590506106eb81610c8f565b92915050565b60006020828403121561070357600080fd5b600082013567ffffffffffffffff81111561071d57600080fd5b61072984828501610688565b91505092915050565b6000806040838503121561074557600080fd5b600083013567ffffffffffffffff81111561075f57600080fd5b61076b85828601610688565b925050602083013567ffffffffffffffff81111561078857600080fd5b61079485828601610688565b9150509250929050565b6000806000606084860312156107b357600080fd5b600084013567ffffffffffffffff8111156107cd57600080fd5b6107d986828701610688565b935050602084013567ffffffffffffffff8111156107f657600080fd5b61080286828701610688565b9250506040610813868287016106dc565b9150509250925092565b600061082983836108c4565b905092915050565b61083a81610bf6565b82525050565b600061084b82610b95565b6108558185610bb8565b93508360208202850161086785610b85565b8060005b858110156108a35784840389528151610884858261081d565b945061088f83610bab565b925060208a0199505060018101905061086b565b50829750879550505050505092915050565b6108be81610c08565b82525050565b60006108cf82610ba0565b6108d98185610bc9565b93506108e9818560208601610c4b565b6108f281610c7e565b840191505092915050565b600061090882610ba0565b6109128185610bda565b9350610922818560208601610c4b565b61092b81610c7e565b840191505092915050565b600061094182610ba0565b61094b8185610beb565b935061095b818560208601610c4b565b80840191505092915050565b6000610974601183610bda565b91507f5065726d697373696f6e2064656e6965640000000000000000000000000000006000830152602082019050919050565b60006109b4602283610bda565b91507f5468652073747564656e7420686173206e6f74206265656e206576616c75617460008301527f65640000000000000000000000000000000000000000000000000000000000006020830152604082019050919050565b610a1681610c32565b82525050565b6000610a288284610936565b915081905092915050565b6000610a3f8285610936565b9150610a4b8284610936565b91508190509392505050565b6000602082019050610a6c6000830184610831565b92915050565b60006020820190508181036000830152610a8c8184610840565b905092915050565b6000602082019050610aa960008301846108b5565b92915050565b60006020820190508181036000830152610ac981846108fd565b905092915050565b60006020820190508181036000830152610aea81610967565b9050919050565b60006020820190508181036000830152610b0a816109a7565b9050919050565b6000602082019050610b266000830184610a0d565b92915050565b6000604051905081810181811067ffffffffffffffff82111715610b4f57600080fd5b8060405250919050565b600067ffffffffffffffff821115610b7057600080fd5b601f19601f8301169050602081019050919050565b6000819050602082019050919050565b600081519050919050565b600081519050919050565b6000602082019050919050565b600082825260208201905092915050565b600082825260208201905092915050565b600082825260208201905092915050565b600081905092915050565b6000610c0182610c12565b9050919050565b6000819050919050565b600073ffffffffffffffffffffffffffffffffffffffff82169050919050565b6000819050919050565b82818337600083830152505050565b60005b83811015610c69578082015181840152602081019050610c4e565b83811115610c78576000848401525b50505050565b6000601f19601f8301169050919050565b610c9881610c32565b8114610ca357600080fd5b5056fea2646970667358221220722a06d38140f39ca79d75312c59a57acc9ef2cf9588b1fd29fb79e6c66366be64736f6c63430006060033",
  "immutableReferences": {},
  "source": "// SPDX-License-Identifier: MIT\npragma solidity >= 0.4.4 < 0.7.0;\npragma experimental ABIEncoderV2;\n\n// -----------------------------------\n//  ALUMNO   |    ID    |      NOTA\n// -----------------------------------\n//  Marcos |    77755N    |      5\n//  Joan   |    12345X    |      9\n//  Maria  |    02468T    |      2\n//  Marta  |    13579U    |      3\n//  Alba   |    98765Z    |      5\n\ncontract Notes {\n    \n    // Teacher's address\n    address public teacher;\n    \n    // Constructor\n    constructor() public {\n        teacher = msg.sender;\n    }\n    \n    // Mapping that relates the student identity's hash with his exam's note \n    mapping (bytes32 => uint) notes;\n    \n    // Students' array for ones who ask for an exam revision\n    mapping(string => string[]) revisions;\n    \n    // Events\n    event student_evaluated(bytes32);\n    event revision_asked(string);\n    \n    // Modifiers\n    \n    // Control of the functions that are executable by the teacher\n    modifier OnlyTeacher(address _teacher) {\n        // Requiers that the address entered by param be equal to the contract's owner\n        require(teacher == _teacher, \"Permission denied\");\n        _;\n    }\n    \n    // Check that the student has been evaluated\n    modifier StudentEvaluated(string memory _subject, string memory _student_id) {\n        bytes32 student_id_hash = keccak256(abi.encodePacked(_subject, _student_id));\n        uint student_note = notes[student_id_hash];\n        \n        require(student_note > 0, \"The student has not been evaluated\");\n        _;\n    }\n    \n    // Function to evaluate students\n    function Evaluate(string memory _subject, string memory _id, uint _note) public OnlyTeacher(msg.sender) {\n        // Student's Id hash\n        bytes32 student_id_hash = keccak256(abi.encodePacked(_subject, _id));\n        \n        // Relation between the student's hash and his note\n        notes[student_id_hash] = _note;\n        \n        // Emit the event\n        emit student_evaluated(student_id_hash);\n    }\n    \n    // Function to see a student's notes\n    function SeeNotes(string memory _subject, string memory _student_id) public view StudentEvaluated(_subject, _student_id) returns(uint) {\n        bytes32 student_id_hash = keccak256(abi.encodePacked(_subject, _student_id));\n        \n        // Asociated note to the student's hash\n        uint student_note = notes[student_id_hash];\n        \n        return student_note;\n    }\n    \n    // Function to ask for an exam's revision\n    function Revision(string memory _subject, string memory _student_id) public StudentEvaluated(_subject, _student_id) {\n        // Storage of the student's id in an array\n        revisions[_subject].push(_student_id);\n        \n        // Emit the event\n        emit revision_asked(_student_id);\n    }\n    \n    // Function to see the students who have asked for an exam's revision\n    function SeeRevisions(string memory _subject) public view OnlyTeacher(msg.sender) returns(string[] memory) {\n        // Return the students' identities\n        return revisions[_subject];\n    }\n}\n",
  "sourcePath": "/Users/martins/Projects/truffle-p/notes/contracts/Notes.sol",
  "compiler": {
    "name": "solc",
    "version": "0.6.6+commit.6c089d02.Emscripten.clang"
  },
  "schemaVersion": "3.4.4",
  "updatedAt": "2021-12-20T20:11:11.692Z",
  "networkType": "ethereum",
  "devdoc": {
    "methods": {}
  },
  "userdoc": {
    "methods": {}
  }
}