{
  "contractName": "Lotery",
  "abi": [
    {
      "inputs": [],
      "stateMutability": "nonpayable",
      "type": "constructor"
    },
    {
      "anonymous": false,
      "inputs": [
        {
          "indexed": false,
          "internalType": "uint256",
          "name": "",
          "type": "uint256"
        },
        {
          "indexed": false,
          "internalType": "address",
          "name": "",
          "type": "address"
        }
      ],
      "name": "bought_ticket",
      "type": "event"
    },
    {
      "anonymous": false,
      "inputs": [
        {
          "indexed": false,
          "internalType": "uint256",
          "name": "",
          "type": "uint256"
        },
        {
          "indexed": false,
          "internalType": "address",
          "name": "",
          "type": "address"
        }
      ],
      "name": "buying_tokens",
      "type": "event"
    },
    {
      "anonymous": false,
      "inputs": [
        {
          "indexed": false,
          "internalType": "uint256",
          "name": "",
          "type": "uint256"
        },
        {
          "indexed": false,
          "internalType": "address",
          "name": "",
          "type": "address"
        }
      ],
      "name": "returned_tokens",
      "type": "event"
    },
    {
      "anonymous": false,
      "inputs": [
        {
          "indexed": false,
          "internalType": "uint256",
          "name": "election",
          "type": "uint256"
        },
        {
          "indexed": false,
          "internalType": "address",
          "name": "winner",
          "type": "address"
        },
        {
          "indexed": false,
          "internalType": "uint256",
          "name": "tokens",
          "type": "uint256"
        }
      ],
      "name": "winner_ticket",
      "type": "event"
    },
    {
      "inputs": [],
      "name": "contract_address",
      "outputs": [
        {
          "internalType": "address",
          "name": "",
          "type": "address"
        }
      ],
      "stateMutability": "view",
      "type": "function",
      "constant": true
    },
    {
      "inputs": [],
      "name": "owner_address",
      "outputs": [
        {
          "internalType": "address",
          "name": "",
          "type": "address"
        }
      ],
      "stateMutability": "view",
      "type": "function",
      "constant": true
    },
    {
      "inputs": [],
      "name": "ticket_price",
      "outputs": [
        {
          "internalType": "uint256",
          "name": "",
          "type": "uint256"
        }
      ],
      "stateMutability": "view",
      "type": "function",
      "constant": true
    },
    {
      "inputs": [],
      "name": "token_address",
      "outputs": [
        {
          "internalType": "address",
          "name": "",
          "type": "address"
        }
      ],
      "stateMutability": "view",
      "type": "function",
      "constant": true
    },
    {
      "inputs": [
        {
          "internalType": "uint256",
          "name": "_tokens_number",
          "type": "uint256"
        }
      ],
      "name": "TokensPrice",
      "outputs": [
        {
          "internalType": "uint256",
          "name": "",
          "type": "uint256"
        }
      ],
      "stateMutability": "pure",
      "type": "function",
      "constant": true
    },
    {
      "inputs": [
        {
          "internalType": "uint256",
          "name": "_tokens_number",
          "type": "uint256"
        }
      ],
      "name": "GenerateTokens",
      "outputs": [],
      "stateMutability": "nonpayable",
      "type": "function"
    },
    {
      "inputs": [
        {
          "internalType": "address",
          "name": "_to",
          "type": "address"
        },
        {
          "internalType": "uint256",
          "name": "_tokens_number",
          "type": "uint256"
        }
      ],
      "name": "BuyTokens",
      "outputs": [],
      "stateMutability": "payable",
      "type": "function",
      "payable": true
    },
    {
      "inputs": [],
      "name": "AvailableTokens",
      "outputs": [
        {
          "internalType": "uint256",
          "name": "",
          "type": "uint256"
        }
      ],
      "stateMutability": "view",
      "type": "function",
      "constant": true
    },
    {
      "inputs": [],
      "name": "TokensBucket",
      "outputs": [
        {
          "internalType": "uint256",
          "name": "",
          "type": "uint256"
        }
      ],
      "stateMutability": "view",
      "type": "function",
      "constant": true
    },
    {
      "inputs": [
        {
          "internalType": "address",
          "name": "_address",
          "type": "address"
        }
      ],
      "name": "BalanceOf",
      "outputs": [
        {
          "internalType": "uint256",
          "name": "",
          "type": "uint256"
        }
      ],
      "stateMutability": "view",
      "type": "function",
      "constant": true
    },
    {
      "inputs": [
        {
          "internalType": "uint256",
          "name": "_tokens_number",
          "type": "uint256"
        }
      ],
      "name": "ReturnTokens",
      "outputs": [],
      "stateMutability": "nonpayable",
      "type": "function"
    },
    {
      "inputs": [
        {
          "internalType": "uint256",
          "name": "_tickets_number",
          "type": "uint256"
        }
      ],
      "name": "BuyTickets",
      "outputs": [],
      "stateMutability": "nonpayable",
      "type": "function"
    },
    {
      "inputs": [],
      "name": "GetPersons",
      "outputs": [
        {
          "internalType": "address[]",
          "name": "",
          "type": "address[]"
        }
      ],
      "stateMutability": "view",
      "type": "function",
      "constant": true
    },
    {
      "inputs": [],
      "name": "GetWinner",
      "outputs": [
        {
          "internalType": "address",
          "name": "",
          "type": "address"
        }
      ],
      "stateMutability": "view",
      "type": "function",
      "constant": true
    },
    {
      "inputs": [],
      "name": "MyTickets",
      "outputs": [
        {
          "internalType": "uint256[]",
          "name": "",
          "type": "uint256[]"
        }
      ],
      "stateMutability": "view",
      "type": "function",
      "constant": true
    },
    {
      "inputs": [
        {
          "internalType": "address[]",
          "name": "_persons",
          "type": "address[]"
        }
      ],
      "name": "GenerateWinner",
      "outputs": [],
      "stateMutability": "nonpayable",
      "type": "function"
    }
  ],
  "bytecode": "0x60806040526101f4600455600a6005556008600655604b6007556000600c553480156200002b57600080fd5b50620f42406040516200003e9062000191565b6200004a9190620001b0565b604051809103906000f08015801562000067573d6000803e3d6000fd5b506000806101000a81548173ffffffffffffffffffffffffffffffffffffffff021916908373ffffffffffffffffffffffffffffffffffffffff16021790555033600160006101000a81548173ffffffffffffffffffffffffffffffffffffffff021916908373ffffffffffffffffffffffffffffffffffffffff16021790555030600260006101000a81548173ffffffffffffffffffffffffffffffffffffffff021916908373ffffffffffffffffffffffffffffffffffffffff1602179055506000809054906101000a900473ffffffffffffffffffffffffffffffffffffffff16600360006101000a81548173ffffffffffffffffffffffffffffffffffffffff021916908373ffffffffffffffffffffffffffffffffffffffff160217905550620001d7565b61109d806200275283390190565b620001aa81620001cd565b82525050565b6000602082019050620001c760008301846200019f565b92915050565b6000819050919050565b61256b80620001e76000396000f3fe6080604052600436106100f35760003560e01c80638c8e8fee1161008a578063ab6f109211610059578063ab6f1092146102fb578063b23fd3bd14610324578063b8621c7c1461034d578063d996788914610378576100f3565b80638c8e8fee1461024f578063966b35141461027a5780639f6c4e6c146102a5578063a4e8aeb8146102d0576100f3565b806359ab0306116100c657806359ab0306146101a75780635dd59618146101d05780635e1d7514146101fb57806380edef8e14610224576100f3565b806318aa870b146100f857806319d41c69146101235780632548e85c1461014e5780634aff2c4e1461018b575b600080fd5b34801561010457600080fd5b5061010d6103b5565b60405161011a91906120a9565b60405180910390f35b34801561012f57600080fd5b50610138610443565b604051610145919061224f565b60405180910390f35b34801561015a57600080fd5b506101756004803603810190610170919061196d565b610449565b604051610182919061224f565b60405180910390f35b6101a560048036038101906101a091906118c7565b61045c565b005b3480156101b357600080fd5b506101ce60048036038101906101c9919061196d565b610638565b005b3480156101dc57600080fd5b506101e5610aed565b6040516101f2919061224f565b60405180910390f35b34801561020757600080fd5b50610222600480360381019061021d9190611903565b610bc0565b005b34801561023057600080fd5b50610239610f50565b6040516102469190611ff7565b60405180910390f35b34801561025b57600080fd5b50610264610f76565b6040516102719190611ff7565b60405180910390f35b34801561028657600080fd5b5061028f610f9c565b60405161029c9190611ff7565b60405180910390f35b3480156102b157600080fd5b506102ba610fc2565b6040516102c79190611ff7565b60405180910390f35b3480156102dc57600080fd5b506102e5610fec565b6040516102f291906120cb565b60405180910390f35b34801561030757600080fd5b50610322600480360381019061031d919061196d565b611081565b005b34801561033057600080fd5b5061034b6004803603810190610346919061196d565b6111a2565b005b34801561035957600080fd5b5061036261138e565b60405161036f919061224f565b60405180910390f35b34801561038457600080fd5b5061039f600480360381019061039a919061189e565b611461565b6040516103ac919061224f565b60405180910390f35b6060600a80548060200260200160405190810160405280929190818152602001828054801561043957602002820191906000526020600020905b8160009054906101000a900473ffffffffffffffffffffffffffffffffffffffff1673ffffffffffffffffffffffffffffffffffffffff16815260200190600101908083116103ef575b5050505050905090565b60045481565b6000662386f26fc1000082029050919050565b600061046782610449565b9050803410156104ac576040517f08c379a00000000000000000000000000000000000000000000000000000000081526004016104a39061214f565b60405180910390fd5b60006104b661138e565b9050808311156104fb576040517f08c379a00000000000000000000000000000000000000000000000000000000081526004016104f29061222f565b60405180910390fd5b600082340390503373ffffffffffffffffffffffffffffffffffffffff166108fc829081150290604051600060405180830381858888f19350505050158015610548573d6000803e3d6000fd5b506000809054906101000a900473ffffffffffffffffffffffffffffffffffffffff1673ffffffffffffffffffffffffffffffffffffffff1663a9059cbb86866040518363ffffffff1660e01b81526004016105a5929190612080565b602060405180830381600087803b1580156105bf57600080fd5b505af11580156105d3573d6000803e3d6000fd5b505050506040513d601f19601f820116820180604052508101906105f79190611944565b507f026ded15808850b7c1c4b5dd595d20a8a1da7becf94c6cab034e0cc67418287a848660405161062992919061226a565b60405180910390a15050505050565b33600160009054906101000a900473ffffffffffffffffffffffffffffffffffffffff1673ffffffffffffffffffffffffffffffffffffffff168173ffffffffffffffffffffffffffffffffffffffff1614156106ca576040517f08c379a00000000000000000000000000000000000000000000000000000000081526004016106c1906121ef565b60405180910390fd5b6000821161070d576040517f08c379a00000000000000000000000000000000000000000000000000000000081526004016107049061218f565b60405180910390fd5b600554600d8054905010610756576040517f08c379a000000000000000000000000000000000000000000000000000000000815260040161074d906121af565b60405180910390fd5b6000600d805490506005540390508083111561077182611514565b6040516020016107819190611f72565b604051602081830303815290604052906107d1576040517f08c379a00000000000000000000000000000000000000000000000000000000081526004016107c891906120ed565b60405180910390fd5b506000600454840290506107e433611461565b811115610826576040517f08c379a000000000000000000000000000000000000000000000000000000000815260040161081d906121cf565b60405180910390fd5b6000809054906101000a900473ffffffffffffffffffffffffffffffffffffffff1673ffffffffffffffffffffffffffffffffffffffff1663beabacc833600160009054906101000a900473ffffffffffffffffffffffffffffffffffffffff16846040518463ffffffff1660e01b81526004016108a693929190612012565b602060405180830381600087803b1580156108c057600080fd5b505af11580156108d4573d6000803e3d6000fd5b505050506040513d601f19601f820116820180604052508101906108f89190611944565b50600a339080600181540180825580915050600190039060005260206000200160009091909190916101000a81548173ffffffffffffffffffffffffffffffffffffffff021916908373ffffffffffffffffffffffffffffffffffffffff16021790555060008090505b84811015610ae6576000600654600a0a4233600c5460405160200161098993929190611fba565b6040516020818303038152906040528051906020012060001c816109a957fe5b069050600c60008154809291906001019190505550600960003373ffffffffffffffffffffffffffffffffffffffff1673ffffffffffffffffffffffffffffffffffffffff168152602001908152602001600020819080600181540180825580915050600190039060005260206000200160009091909190915055600d81908060018154018082558091505060019003906000526020600020016000909190919091505533600b600083815260200190815260200160002060006101000a81548173ffffffffffffffffffffffffffffffffffffffff021916908373ffffffffffffffffffffffffffffffffffffffff1602179055507fb56caeddd580b00c78feed3698a6c84b3e1c9a42ca52ee2f894e1361b786c2108133604051610ad0929190612293565b60405180910390a1508080600101915050610962565b5050505050565b60008060009054906101000a900473ffffffffffffffffffffffffffffffffffffffff1673ffffffffffffffffffffffffffffffffffffffff166370a08231600160009054906101000a900473ffffffffffffffffffffffffffffffffffffffff166040518263ffffffff1660e01b8152600401610b6b9190611ff7565b60206040518083038186803b158015610b8357600080fd5b505afa158015610b97573d6000803e3d6000fd5b505050506040513d601f19601f82011682018060405250810190610bbb9190611996565b905090565b33600160009054906101000a900473ffffffffffffffffffffffffffffffffffffffff1673ffffffffffffffffffffffffffffffffffffffff168173ffffffffffffffffffffffffffffffffffffffff1614610c51576040517f08c379a0000000000000000000000000000000000000000000000000000000008152600401610c48906121ef565b60405180910390fd5b6000600d8054905011610c99576040517f08c379a0000000000000000000000000000000000000000000000000000000008152600401610c909061210f565b60405180910390fd5b6001825111610cdd576040517f08c379a0000000000000000000000000000000000000000000000000000000008152600401610cd49061220f565b60405180910390fd5b6000600d80549050905060008142604051602001610cfb9190611f9f565b6040516020818303038152906040528051906020012060001c81610d1b57fe5b0690506000600d8281548110610d2d57fe5b90600052602060002001549050600860006101000a81549073ffffffffffffffffffffffffffffffffffffffff0219169055600b600082815260200190815260200160002060009054906101000a900473ffffffffffffffffffffffffffffffffffffffff16600860006101000a81548173ffffffffffffffffffffffffffffffffffffffff021916908373ffffffffffffffffffffffffffffffffffffffff16021790555060006064610ddf610aed565b6007540281610dea57fe5b0490506000809054906101000a900473ffffffffffffffffffffffffffffffffffffffff1673ffffffffffffffffffffffffffffffffffffffff1663beabacc8600160009054906101000a900473ffffffffffffffffffffffffffffffffffffffff16600860009054906101000a900473ffffffffffffffffffffffffffffffffffffffff16846040518463ffffffff1660e01b8152600401610e8f93929190612049565b602060405180830381600087803b158015610ea957600080fd5b505af1158015610ebd573d6000803e3d6000fd5b505050506040513d601f19601f82011682018060405250810190610ee19190611944565b507fb7feecc2ca3e3d31a8ca58973a3bb8e2dbb8d3c878aace0fdf224ab5dfeaee3182600860009054906101000a900473ffffffffffffffffffffffffffffffffffffffff1683604051610f37939291906122bc565b60405180910390a1610f4886611658565b505050505050565b600160009054906101000a900473ffffffffffffffffffffffffffffffffffffffff1681565b600360009054906101000a900473ffffffffffffffffffffffffffffffffffffffff1681565b600260009054906101000a900473ffffffffffffffffffffffffffffffffffffffff1681565b6000600860009054906101000a900473ffffffffffffffffffffffffffffffffffffffff16905090565b6060600960003373ffffffffffffffffffffffffffffffffffffffff1673ffffffffffffffffffffffffffffffffffffffff16815260200190815260200160002080548060200260200160405190810160405280929190818152602001828054801561107757602002820191906000526020600020905b815481526020019060010190808311611063575b5050505050905090565b33600160009054906101000a900473ffffffffffffffffffffffffffffffffffffffff1673ffffffffffffffffffffffffffffffffffffffff168173ffffffffffffffffffffffffffffffffffffffff1614611112576040517f08c379a0000000000000000000000000000000000000000000000000000000008152600401611109906121ef565b60405180910390fd5b6000809054906101000a900473ffffffffffffffffffffffffffffffffffffffff1673ffffffffffffffffffffffffffffffffffffffff16631d43cc98836040518263ffffffff1660e01b815260040161116c919061224f565b600060405180830381600087803b15801561118657600080fd5b505af115801561119a573d6000803e3d6000fd5b505050505050565b600081116111e5576040517f08c379a00000000000000000000000000000000000000000000000000000000081526004016111dc9061216f565b60405180910390fd5b6111ee33611461565b811115611230576040517f08c379a00000000000000000000000000000000000000000000000000000000081526004016112279061212f565b60405180910390fd5b6000809054906101000a900473ffffffffffffffffffffffffffffffffffffffff1673ffffffffffffffffffffffffffffffffffffffff1663beabacc833600260009054906101000a900473ffffffffffffffffffffffffffffffffffffffff16846040518463ffffffff1660e01b81526004016112b093929190612012565b602060405180830381600087803b1580156112ca57600080fd5b505af11580156112de573d6000803e3d6000fd5b505050506040513d601f19601f820116820180604052508101906113029190611944565b503373ffffffffffffffffffffffffffffffffffffffff166108fc61132683610449565b9081150290604051600060405180830381858888f19350505050158015611351573d6000803e3d6000fd5b507ff01573a394726fdf924e6e4e082e4dd04f02d0a89c044b6a34714b0a1f4692758133604051611383929190612293565b60405180910390a150565b60008060009054906101000a900473ffffffffffffffffffffffffffffffffffffffff1673ffffffffffffffffffffffffffffffffffffffff166370a08231600260009054906101000a900473ffffffffffffffffffffffffffffffffffffffff166040518263ffffffff1660e01b815260040161140c9190611ff7565b60206040518083038186803b15801561142457600080fd5b505afa158015611438573d6000803e3d6000fd5b505050506040513d601f19601f8201168201806040525081019061145c9190611996565b905090565b60008060009054906101000a900473ffffffffffffffffffffffffffffffffffffffff1673ffffffffffffffffffffffffffffffffffffffff166370a08231836040518263ffffffff1660e01b81526004016114bd9190611ff7565b60206040518083038186803b1580156114d557600080fd5b505afa1580156114e9573d6000803e3d6000fd5b505050506040513d601f19601f8201168201806040525081019061150d9190611996565b9050919050565b6060600082141561155c576040518060400160405280600181526020017f30000000000000000000000000000000000000000000000000000000000000008152509050611653565b600082905060005b60008214611586578080600101915050600a828161157e57fe5b049150611564565b60608167ffffffffffffffff8111801561159f57600080fd5b506040519080825280601f01601f1916602001820160405280156115d25781602001600182028036833780820191505090505b50905060008290508593505b6000841461164b57600a84816115f057fe5b0660300160f81b8282600190039250828151811061160a57fe5b60200101907effffffffffffffffffffffffffffffffffffffffffffffffffffffffffffff1916908160001a905350600a848161164357fe5b0493506115de565b819450505050505b919050565b60008090505b600d805490508110156116c557600b6000600d838154811061167c57fe5b9060005260206000200154815260200190815260200160002060006101000a81549073ffffffffffffffffffffffffffffffffffffffff0219169055808060010191505061165e565b5060008090505b815181101561174057600960008383815181106116e557fe5b602002602001015173ffffffffffffffffffffffffffffffffffffffff1673ffffffffffffffffffffffffffffffffffffffff16815260200190815260200160002060006117339190611760565b80806001019150506116cc565b50600d600061174f9190611760565b600a600061175d9190611781565b50565b508054600082559060005260206000209081019061177e91906117a2565b50565b508054600082559060005260206000209081019061179f91906117a2565b50565b6117c491905b808211156117c05760008160009055506001016117a8565b5090565b90565b6000813590506117d6816124f0565b92915050565b600082601f8301126117ed57600080fd5b81356118006117fb82612320565b6122f3565b9150818183526020840193506020810190508385602084028201111561182557600080fd5b60005b83811015611855578161183b88826117c7565b845260208401935060208301925050600181019050611828565b5050505092915050565b60008151905061186e81612507565b92915050565b6000813590506118838161251e565b92915050565b6000815190506118988161251e565b92915050565b6000602082840312156118b057600080fd5b60006118be848285016117c7565b91505092915050565b600080604083850312156118da57600080fd5b60006118e8858286016117c7565b92505060206118f985828601611874565b9150509250929050565b60006020828403121561191557600080fd5b600082013567ffffffffffffffff81111561192f57600080fd5b61193b848285016117dc565b91505092915050565b60006020828403121561195657600080fd5b60006119648482850161185f565b91505092915050565b60006020828403121561197f57600080fd5b600061198d84828501611874565b91505092915050565b6000602082840312156119a857600080fd5b60006119b684828501611889565b91505092915050565b60006119cb8383611a15565b60208301905092915050565b60006119e38383611f3d565b60208301905092915050565b6119f88161243b565b82525050565b611a0f611a0a826123f3565b6124a4565b82525050565b611a1e816123e1565b82525050565b611a2d816123e1565b82525050565b6000611a3e82612368565b611a4881856123a3565b9350611a5383612348565b8060005b83811015611a84578151611a6b88826119bf565b9750611a7683612389565b925050600181019050611a57565b5085935050505092915050565b6000611a9c82612373565b611aa681856123b4565b9350611ab183612358565b8060005b83811015611ae2578151611ac988826119d7565b9750611ad483612396565b925050600181019050611ab5565b5085935050505092915050565b6000611afa8261237e565b611b0481856123c5565b9350611b14818560208601612471565b611b1d816124d2565b840191505092915050565b6000611b338261237e565b611b3d81856123d6565b9350611b4d818560208601612471565b80840191505092915050565b6000611b666012836123c5565b91507f54686572652773206e6f207469636b65747300000000000000000000000000006000830152602082019050919050565b6000611ba6600f836123d6565b91507f207469636b6574287329206c65667400000000000000000000000000000000006000830152600f82019050919050565b6000611be66031836123c5565b91507f596f7520646f6e277420686176652074686520746f6b656e732074686174207960008301527f6f752077616e7420746f2072657475726e0000000000000000000000000000006020830152604082019050919050565b6000611c4c6027836123c5565b91507f427579206c65737320746f6b656e73206f72207061792077697468206d6f726560008301527f20657468657273000000000000000000000000000000000000000000000000006020830152604082019050919050565b6000611cb2602e836123c5565b91507f596f75206e65656420746f2072657475726e206120706f736974697665206e7560008301527f6d626572206f6620746f6b656e730000000000000000000000000000000000006020830152604082019050919050565b6000611d186024836123c5565b91507f456e7465722061207469636b6574206e756d62657220706f736974697665207660008301527f616c7565000000000000000000000000000000000000000000000000000000006020830152604082019050919050565b6000611d7e601e836123c5565b91507f54686572652773206e6f206d6f7265207469636b65747320746f2062757900006000830152602082019050919050565b6000611dbe6014836123c5565b91507f596f75206e656564206d6f726520746f6b656e730000000000000000000000006000830152602082019050919050565b6000611dfe602b836123c5565b91507f5065726d697373696f6e732064656e69656420746f206578656375746520746860008301527f69732066756e6374696f6e0000000000000000000000000000000000000000006020830152604082019050919050565b6000611e646027836123c5565b91507f4d696e696d756d207175616e74697479206f6620706572736f6e73206e6f742060008301527f72656163686564000000000000000000000000000000000000000000000000006020830152604082019050919050565b6000611eca600f836123c5565b91507f427579206c65737320746f6b656e7300000000000000000000000000000000006000830152602082019050919050565b6000611f0a6005836123d6565b91507f4f6e6c79200000000000000000000000000000000000000000000000000000006000830152600582019050919050565b611f4681612431565b82525050565b611f5581612431565b82525050565b611f6c611f6782612431565b6124c8565b82525050565b6000611f7d82611efd565b9150611f898284611b28565b9150611f9482611b99565b915081905092915050565b6000611fab8284611f5b565b60208201915081905092915050565b6000611fc68286611f5b565b602082019150611fd682856119fe565b601482019150611fe68284611f5b565b602082019150819050949350505050565b600060208201905061200c6000830184611a24565b92915050565b600060608201905061202760008301866119ef565b6120346020830185611a24565b6120416040830184611f4c565b949350505050565b600060608201905061205e6000830186611a24565b61206b6020830185611a24565b6120786040830184611f4c565b949350505050565b60006040820190506120956000830185611a24565b6120a26020830184611f4c565b9392505050565b600060208201905081810360008301526120c38184611a33565b905092915050565b600060208201905081810360008301526120e58184611a91565b905092915050565b600060208201905081810360008301526121078184611aef565b905092915050565b6000602082019050818103600083015261212881611b59565b9050919050565b6000602082019050818103600083015261214881611bd9565b9050919050565b6000602082019050818103600083015261216881611c3f565b9050919050565b6000602082019050818103600083015261218881611ca5565b9050919050565b600060208201905081810360008301526121a881611d0b565b9050919050565b600060208201905081810360008301526121c881611d71565b9050919050565b600060208201905081810360008301526121e881611db1565b9050919050565b6000602082019050818103600083015261220881611df1565b9050919050565b6000602082019050818103600083015261222881611e57565b9050919050565b6000602082019050818103600083015261224881611ebd565b9050919050565b60006020820190506122646000830184611f4c565b92915050565b600060408201905061227f6000830185611f4c565b61228c6020830184611a24565b9392505050565b60006040820190506122a86000830185611f4c565b6122b560208301846119ef565b9392505050565b60006060820190506122d16000830186611f4c565b6122de6020830185611a24565b6122eb6040830184611f4c565b949350505050565b6000604051905081810181811067ffffffffffffffff8211171561231657600080fd5b8060405250919050565b600067ffffffffffffffff82111561233757600080fd5b602082029050602081019050919050565b6000819050602082019050919050565b6000819050602082019050919050565b600081519050919050565b600081519050919050565b600081519050919050565b6000602082019050919050565b6000602082019050919050565b600082825260208201905092915050565b600082825260208201905092915050565b600082825260208201905092915050565b600081905092915050565b60006123ec82612411565b9050919050565b60006123fe82612411565b9050919050565b60008115159050919050565b600073ffffffffffffffffffffffffffffffffffffffff82169050919050565b6000819050919050565b60006124468261244d565b9050919050565b60006124588261245f565b9050919050565b600061246a82612411565b9050919050565b60005b8381101561248f578082015181840152602081019050612474565b8381111561249e576000848401525b50505050565b60006124af826124b6565b9050919050565b60006124c1826124e3565b9050919050565b6000819050919050565b6000601f19601f8301169050919050565b60008160601b9050919050565b6124f9816123e1565b811461250457600080fd5b50565b61251081612405565b811461251b57600080fd5b50565b61252781612431565b811461253257600080fd5b5056fea264697066735822122060317806c0ef808cb20de8db540fbfffc5c4faee2bcfaaff0c07c7abd3caeda764736f6c63430006080033608060405234801561001057600080fd5b5060405161109d38038061109d83398181016040528101906100329190610099565b806002819055506002546000803373ffffffffffffffffffffffffffffffffffffffff1673ffffffffffffffffffffffffffffffffffffffff16815260200190815260200160002081905550506100e3565b600081519050610093816100cc565b92915050565b6000602082840312156100ab57600080fd5b60006100b984828501610084565b91505092915050565b6000819050919050565b6100d5816100c2565b81146100e057600080fd5b50565b610fab806100f26000396000f3fe608060405234801561001057600080fd5b50600436106100a95760003560e01c8063313ce56711610071578063313ce5671461016657806370a082311461018457806395d89b41146101b4578063a9059cbb146101d2578063beabacc814610202578063dd62ed3e14610232576100a9565b806306fdde03146100ae578063095ea7b3146100cc57806318160ddd146100fc5780631d43cc981461011a57806323b872dd14610136575b600080fd5b6100b6610262565b6040516100c39190610e3a565b60405180910390f35b6100e660048036038101906100e19190610d54565b61029b565b6040516100f39190610e1f565b60405180910390f35b61010461038d565b6040516101119190610e5c565b60405180910390f35b610134600480360381019061012f9190610d90565b610397565b005b610150600480360381019061014b9190610d05565b6103f6565b60405161015d9190610e1f565b60405180910390f35b61016e610771565b60405161017b9190610e77565b60405180910390f35b61019e60048036038101906101999190610ca0565b610776565b6040516101ab9190610e5c565b60405180910390f35b6101bc6107be565b6040516101c99190610e3a565b60405180910390f35b6101ec60048036038101906101e79190610d54565b6107f7565b6040516101f99190610e1f565b60405180910390f35b61021c60048036038101906102179190610d05565b6109d9565b6040516102299190610e1f565b60405180910390f35b61024c60048036038101906102479190610cc9565b610bbc565b6040516102599190610e5c565b60405180910390f35b6040518060400160405280601181526020017f4552433230426c6f636b636861696e415a00000000000000000000000000000081525081565b600081600160003373ffffffffffffffffffffffffffffffffffffffff1673ffffffffffffffffffffffffffffffffffffffff16815260200190815260200160002060008573ffffffffffffffffffffffffffffffffffffffff1673ffffffffffffffffffffffffffffffffffffffff168152602001908152602001600020819055508273ffffffffffffffffffffffffffffffffffffffff163373ffffffffffffffffffffffffffffffffffffffff167f8c5be1e5ebec7d5bd14f71427d1e84f3dd0314c0f7b2291e5b200ac8c7c3b9258460405161037b9190610e5c565b60405180910390a36001905092915050565b6000600254905090565b80600260008282540192505081905550806000803373ffffffffffffffffffffffffffffffffffffffff1673ffffffffffffffffffffffffffffffffffffffff1681526020019081526020016000206000828254019250508190555050565b60008060008573ffffffffffffffffffffffffffffffffffffffff1673ffffffffffffffffffffffffffffffffffffffff1681526020019081526020016000205482111561044357600080fd5b600160008573ffffffffffffffffffffffffffffffffffffffff1673ffffffffffffffffffffffffffffffffffffffff16815260200190815260200160002060003373ffffffffffffffffffffffffffffffffffffffff1673ffffffffffffffffffffffffffffffffffffffff168152602001908152602001600020548211156104cc57600080fd5b61051d826000808773ffffffffffffffffffffffffffffffffffffffff1673ffffffffffffffffffffffffffffffffffffffff16815260200190815260200160002054610c4390919063ffffffff16565b6000808673ffffffffffffffffffffffffffffffffffffffff1673ffffffffffffffffffffffffffffffffffffffff168152602001908152602001600020819055506105ee82600160008773ffffffffffffffffffffffffffffffffffffffff1673ffffffffffffffffffffffffffffffffffffffff16815260200190815260200160002060003373ffffffffffffffffffffffffffffffffffffffff1673ffffffffffffffffffffffffffffffffffffffff16815260200190815260200160002054610c4390919063ffffffff16565b600160008673ffffffffffffffffffffffffffffffffffffffff1673ffffffffffffffffffffffffffffffffffffffff16815260200190815260200160002060003373ffffffffffffffffffffffffffffffffffffffff1673ffffffffffffffffffffffffffffffffffffffff168152602001908152602001600020819055506106bf826000808673ffffffffffffffffffffffffffffffffffffffff1673ffffffffffffffffffffffffffffffffffffffff16815260200190815260200160002054610c5a90919063ffffffff16565b6000808573ffffffffffffffffffffffffffffffffffffffff1673ffffffffffffffffffffffffffffffffffffffff168152602001908152602001600020819055508273ffffffffffffffffffffffffffffffffffffffff168473ffffffffffffffffffffffffffffffffffffffff167fddf252ad1be2c89b69c2b068fc378daa952ba7f163c4a11628f55a4df523b3ef8460405161075e9190610e5c565b60405180910390a3600190509392505050565b600281565b60008060008373ffffffffffffffffffffffffffffffffffffffff1673ffffffffffffffffffffffffffffffffffffffff168152602001908152602001600020549050919050565b6040518060400160405280600381526020017f455243000000000000000000000000000000000000000000000000000000000081525081565b60008060003373ffffffffffffffffffffffffffffffffffffffff1673ffffffffffffffffffffffffffffffffffffffff1681526020019081526020016000205482111561084457600080fd5b610895826000803373ffffffffffffffffffffffffffffffffffffffff1673ffffffffffffffffffffffffffffffffffffffff16815260200190815260200160002054610c4390919063ffffffff16565b6000803373ffffffffffffffffffffffffffffffffffffffff1673ffffffffffffffffffffffffffffffffffffffff16815260200190815260200160002081905550610928826000808673ffffffffffffffffffffffffffffffffffffffff1673ffffffffffffffffffffffffffffffffffffffff16815260200190815260200160002054610c5a90919063ffffffff16565b6000808573ffffffffffffffffffffffffffffffffffffffff1673ffffffffffffffffffffffffffffffffffffffff168152602001908152602001600020819055508273ffffffffffffffffffffffffffffffffffffffff163373ffffffffffffffffffffffffffffffffffffffff167fddf252ad1be2c89b69c2b068fc378daa952ba7f163c4a11628f55a4df523b3ef846040516109c79190610e5c565b60405180910390a36001905092915050565b60008060008573ffffffffffffffffffffffffffffffffffffffff1673ffffffffffffffffffffffffffffffffffffffff16815260200190815260200160002054821115610a2657600080fd5b610a77826000808773ffffffffffffffffffffffffffffffffffffffff1673ffffffffffffffffffffffffffffffffffffffff16815260200190815260200160002054610c4390919063ffffffff16565b6000808673ffffffffffffffffffffffffffffffffffffffff1673ffffffffffffffffffffffffffffffffffffffff16815260200190815260200160002081905550610b0a826000808673ffffffffffffffffffffffffffffffffffffffff1673ffffffffffffffffffffffffffffffffffffffff16815260200190815260200160002054610c5a90919063ffffffff16565b6000808573ffffffffffffffffffffffffffffffffffffffff1673ffffffffffffffffffffffffffffffffffffffff168152602001908152602001600020819055508273ffffffffffffffffffffffffffffffffffffffff168473ffffffffffffffffffffffffffffffffffffffff167fddf252ad1be2c89b69c2b068fc378daa952ba7f163c4a11628f55a4df523b3ef84604051610ba99190610e5c565b60405180910390a3600190509392505050565b6000600160008473ffffffffffffffffffffffffffffffffffffffff1673ffffffffffffffffffffffffffffffffffffffff16815260200190815260200160002060008373ffffffffffffffffffffffffffffffffffffffff1673ffffffffffffffffffffffffffffffffffffffff16815260200190815260200160002054905092915050565b600082821115610c4f57fe5b818303905092915050565b600080828401905083811015610c6c57fe5b8091505092915050565b600081359050610c8581610f47565b92915050565b600081359050610c9a81610f5e565b92915050565b600060208284031215610cb257600080fd5b6000610cc084828501610c76565b91505092915050565b60008060408385031215610cdc57600080fd5b6000610cea85828601610c76565b9250506020610cfb85828601610c76565b9150509250929050565b600080600060608486031215610d1a57600080fd5b6000610d2886828701610c76565b9350506020610d3986828701610c76565b9250506040610d4a86828701610c8b565b9150509250925092565b60008060408385031215610d6757600080fd5b6000610d7585828601610c76565b9250506020610d8685828601610c8b565b9150509250929050565b600060208284031215610da257600080fd5b6000610db084828501610c8b565b91505092915050565b610dc281610ec0565b82525050565b6000610dd382610e92565b610ddd8185610e9d565b9350610ded818560208601610f03565b610df681610f36565b840191505092915050565b610e0a81610eec565b82525050565b610e1981610ef6565b82525050565b6000602082019050610e346000830184610db9565b92915050565b60006020820190508181036000830152610e548184610dc8565b905092915050565b6000602082019050610e716000830184610e01565b92915050565b6000602082019050610e8c6000830184610e10565b92915050565b600081519050919050565b600082825260208201905092915050565b6000610eb982610ecc565b9050919050565b60008115159050919050565b600073ffffffffffffffffffffffffffffffffffffffff82169050919050565b6000819050919050565b600060ff82169050919050565b60005b83811015610f21578082015181840152602081019050610f06565b83811115610f30576000848401525b50505050565b6000601f19601f8301169050919050565b610f5081610eae565b8114610f5b57600080fd5b50565b610f6781610eec565b8114610f7257600080fd5b5056fea2646970667358221220460e4eb7e0988dc31885d973d2d4f362c0f762935f7ae2de8d76bb7c74d9b10064736f6c63430006080033",
  "immutableReferences": {},
  "source": "// SPDX-License-Identifier: MIT\npragma solidity > 0.4.4 < 0.8.0;\npragma experimental ABIEncoderV2;\n\nimport \"./ERC20.sol\";\nimport \"./uint2string.sol\";\n\ncontract Lotery {\n    using operations for uint;\n\n    // Contract's Token instance\n    ERC20Basic private token;\n\n    address public owner_address;\n    address public contract_address;\n    address public token_address;\n\n    // Token's number to create\n    uint private constant created_tokens = 1000000;\n\n    // Token events\n    event buying_tokens(uint, address);\n    event returned_tokens(uint, address);\n\n    constructor() public {\n        token = new ERC20Basic(created_tokens);\n        owner_address = msg.sender;\n        contract_address = address(this);\n        token_address = address(token);\n    }\n\n    // Modifier to make functions only accesible by the contract's owner \n    modifier OnlyBy(address _address) {\n        require(_address == owner_address, \"Permissions denied to execute this function\");\n        _;\n    }\n\n    // Modifier to make functions not accesible by the contract's owner \n    modifier NotBy(address _address) {\n        require(_address != owner_address, \"Permissions denied to execute this function\");\n        _;\n    }\n\n    // ----------------------------- TOKEN -------------------------------------------\n\n    function TokensPrice(uint _tokens_number) public pure returns(uint) {\n        return _tokens_number * (0.01 ether);\n    }\n\n    // Generate more tokens by the lotery\n    function GenerateTokens(uint _tokens_number) public OnlyBy(msg.sender) {\n        token.increaseTotalSupply(_tokens_number);\n    }\n\n    // Buy tokens to buy lotery's tickets\n    function BuyTokens(address _to, uint _tokens_number) public payable {\n        uint cost = TokensPrice(_tokens_number);\n        require(msg.value >= cost, \"Buy less tokens or pay with more ethers\");\n        uint balance = AvailableTokens();\n        require(_tokens_number <= balance, \"Buy less tokens\");\n        uint return_value = msg.value - cost;\n        msg.sender.transfer(return_value);\n        token.transfer(_to, _tokens_number);\n        emit buying_tokens(_tokens_number, _to);\n    }\n\n    // Tokens' balance in the lotery's contract\n    function AvailableTokens() public view returns(uint) {\n        return token.balanceOf(contract_address);\n    }\n\n    // Get the acumulated tokens' balance in the bucket\n    function TokensBucket() public view returns(uint) {\n        return token.balanceOf(owner_address);\n    }\n\n    // Tokens' balance of a person\n    function BalanceOf(address _address) public view returns(uint) {\n        return token.balanceOf(_address);\n    }\n    \n    // Tokens return\n    function ReturnTokens(uint _tokens_number) public {\n        // The number of tokens must be greater than zero \n        require(_tokens_number > 0, \"You need to return a positive number of tokens\");\n        // The user / client has to have the desire quantity of tokens to return\n        require(_tokens_number <= BalanceOf(msg.sender), \"You don't have the tokens that you want to return\");\n        token.transfer(msg.sender, contract_address, _tokens_number);\n        msg.sender.transfer(TokensPrice(_tokens_number));\n        emit returned_tokens(_tokens_number, msg.sender);\n    }\n\n    // ----------------------------- LOTERY -------------------------------------------\n\n    // Ticket's price\n    uint public ticket_price = 500;\n\n    // Total tickets\n    uint total_tickets = 10;\n\n    // Tickets digits\n    uint tickets_digits = 8;\n\n    // Percent to the winner\n    uint winner_percent = 75;\n\n    address winner_address;\n\n    // Relation between the person who buy the tickets and the tickets' numbers\n    mapping(address => uint[]) person_tickets;\n\n    address[] persons;\n\n    // Relation needed to identify the winner\n    mapping(uint => address) ticket_person;\n\n    // Random number\n    uint rand_nonce = 0;\n\n    // Generated tickets\n    uint[] bought_tickets;\n\n    // Events\n    event bought_ticket(uint, address);\n    event winner_ticket(uint election, address winner, uint tokens);\n\n    // Function to buy lotery's tickets\n    function BuyTickets(uint _tickets_number) public NotBy(msg.sender) {\n        require(_tickets_number > 0, \"Enter a ticket number positive value\");\n        require(bought_tickets.length < total_tickets, \"There's no more tickets to buy\");\n        uint available_tickets = total_tickets - bought_tickets.length;\n        require(_tickets_number <= available_tickets, string(abi.encodePacked(\"Only \", available_tickets.uint2str(), \" ticket(s) left\")));\n        // Total tickets' price to buy\n        uint total_tokens = _tickets_number * ticket_price;\n        require(total_tokens <= BalanceOf(msg.sender), \"You need more tokens\");\n\n        // Tokens transfer to the owner\n        token.transfer(msg.sender, owner_address, total_tokens);\n        \n        /*\n        What this does is to take the timestamp, the msg.sender and a nonce (a number\n        that is only used once, to prevent this function to be executed twice with the\n        same input parameters) at increment. Then, the function keccak256 is used to\n        convert these inputs to a random hash, convert this hash to an uint and then\n        we divide the result by 10000 to take the last 4 digits, giving a number between\n        0 and 9999.\n        */\n\n        persons.push(msg.sender);\n\n        for (uint i = 0; i < _tickets_number; i++) {\n            uint random = uint(keccak256(abi.encodePacked(now, msg.sender, rand_nonce))) % 10 ** tickets_digits;\n            rand_nonce++;\n            // Store the tickets' data\n            person_tickets[msg.sender].push(random);\n            bought_tickets.push(random);\n            ticket_person[random] = msg.sender;\n            emit bought_ticket(random, msg.sender);\n        }\n    }\n\n    function GetPersons() public view returns(address[] memory) {\n        return persons;\n    }\n\n    function GetWinner() public view returns(address) {\n        return winner_address;\n    }\n\n    // Visualize a person's tickets number\n    function MyTickets() public view returns(uint[] memory) {\n        return person_tickets[msg.sender];\n    }\n\n    function DeleteData(address[] memory _persons) private {\n        for (uint i=0; i < bought_tickets.length; i++) {\n            delete ticket_person[bought_tickets[i]];\n        }\n\n        for (uint i=0; i < _persons.length; i++) {\n            delete person_tickets[_persons[i]];\n        }\n\n        delete bought_tickets;\n        delete persons;\n    }\n\n    // Function to generate a winner and pay to him the prize\n    function GenerateWinner(address[] memory _persons) public OnlyBy(msg.sender) {\n        // Must be bought tickets to generate a winner\n        require(bought_tickets.length > 0, \"There's no tickets\");\n        require(_persons.length > 1, \"Minimum quantity of persons not reached\");\n        uint array_length = bought_tickets.length;\n        uint position = uint(uint(keccak256(abi.encodePacked(now))) % array_length);\n        uint election = bought_tickets[position];\n        // Get the winner address\n        delete winner_address;\n        winner_address = ticket_person[election];\n        uint tokens_bucket = winner_percent * TokensBucket() / 100;\n        token.transfer(owner_address, winner_address, tokens_bucket);\n        emit winner_ticket(election, winner_address, tokens_bucket);\n        DeleteData(_persons);\n    }\n}",
  "sourcePath": "/Users/martins/Projects/truffle-p/lotery/src/contracts/Lotery.sol",
  "compiler": {
    "name": "solc",
    "version": "0.6.8+commit.0bbfe453.Emscripten.clang"
  },
  "schemaVersion": "3.4.4",
  "updatedAt": "2022-01-01T17:33:10.866Z",
  "networkType": "ethereum",
  "devdoc": {
    "methods": {}
  },
  "userdoc": {
    "methods": {}
  }
}