{
  "contractName": "Lotery",
  "abi": [
    {
      "inputs": [],
      "stateMutability": "nonpayable",
      "type": "constructor"
    },
    {
      "anonymous": false,
      "inputs": [
        {
          "indexed": false,
          "internalType": "uint256",
          "name": "",
          "type": "uint256"
        },
        {
          "indexed": false,
          "internalType": "address",
          "name": "",
          "type": "address"
        }
      ],
      "name": "bought_ticket",
      "type": "event"
    },
    {
      "anonymous": false,
      "inputs": [
        {
          "indexed": false,
          "internalType": "uint256",
          "name": "",
          "type": "uint256"
        },
        {
          "indexed": false,
          "internalType": "address",
          "name": "",
          "type": "address"
        }
      ],
      "name": "buying_tokens",
      "type": "event"
    },
    {
      "anonymous": false,
      "inputs": [
        {
          "indexed": false,
          "internalType": "uint256",
          "name": "",
          "type": "uint256"
        },
        {
          "indexed": false,
          "internalType": "address",
          "name": "",
          "type": "address"
        }
      ],
      "name": "returned_not_played_tokens",
      "type": "event"
    },
    {
      "anonymous": false,
      "inputs": [
        {
          "indexed": false,
          "internalType": "uint256",
          "name": "",
          "type": "uint256"
        },
        {
          "indexed": false,
          "internalType": "address",
          "name": "",
          "type": "address"
        }
      ],
      "name": "returned_tokens",
      "type": "event"
    },
    {
      "anonymous": false,
      "inputs": [
        {
          "indexed": false,
          "internalType": "uint256",
          "name": "election",
          "type": "uint256"
        },
        {
          "indexed": false,
          "internalType": "address",
          "name": "winner",
          "type": "address"
        },
        {
          "indexed": false,
          "internalType": "uint256",
          "name": "tokens",
          "type": "uint256"
        }
      ],
      "name": "winner_ticket",
      "type": "event"
    },
    {
      "inputs": [],
      "name": "contract_address",
      "outputs": [
        {
          "internalType": "address",
          "name": "",
          "type": "address"
        }
      ],
      "stateMutability": "view",
      "type": "function",
      "constant": true
    },
    {
      "inputs": [],
      "name": "owner_address",
      "outputs": [
        {
          "internalType": "address",
          "name": "",
          "type": "address"
        }
      ],
      "stateMutability": "view",
      "type": "function",
      "constant": true
    },
    {
      "inputs": [],
      "name": "ticket_price",
      "outputs": [
        {
          "internalType": "uint256",
          "name": "",
          "type": "uint256"
        }
      ],
      "stateMutability": "view",
      "type": "function",
      "constant": true
    },
    {
      "inputs": [],
      "name": "token_address",
      "outputs": [
        {
          "internalType": "address",
          "name": "",
          "type": "address"
        }
      ],
      "stateMutability": "view",
      "type": "function",
      "constant": true
    },
    {
      "inputs": [
        {
          "internalType": "uint256",
          "name": "_tokens_number",
          "type": "uint256"
        }
      ],
      "name": "TokensPrice",
      "outputs": [
        {
          "internalType": "uint256",
          "name": "",
          "type": "uint256"
        }
      ],
      "stateMutability": "pure",
      "type": "function",
      "constant": true
    },
    {
      "inputs": [
        {
          "internalType": "uint256",
          "name": "_tokens_number",
          "type": "uint256"
        }
      ],
      "name": "GenerateTokens",
      "outputs": [],
      "stateMutability": "nonpayable",
      "type": "function"
    },
    {
      "inputs": [
        {
          "internalType": "address",
          "name": "_to",
          "type": "address"
        },
        {
          "internalType": "uint256",
          "name": "_tokens_number",
          "type": "uint256"
        }
      ],
      "name": "BuyTokens",
      "outputs": [],
      "stateMutability": "payable",
      "type": "function",
      "payable": true
    },
    {
      "inputs": [],
      "name": "AvailableTokens",
      "outputs": [
        {
          "internalType": "uint256",
          "name": "",
          "type": "uint256"
        }
      ],
      "stateMutability": "view",
      "type": "function",
      "constant": true
    },
    {
      "inputs": [],
      "name": "TokensBucket",
      "outputs": [
        {
          "internalType": "uint256",
          "name": "",
          "type": "uint256"
        }
      ],
      "stateMutability": "view",
      "type": "function",
      "constant": true
    },
    {
      "inputs": [
        {
          "internalType": "address",
          "name": "_address",
          "type": "address"
        }
      ],
      "name": "BalanceOf",
      "outputs": [
        {
          "internalType": "uint256",
          "name": "",
          "type": "uint256"
        }
      ],
      "stateMutability": "view",
      "type": "function",
      "constant": true
    },
    {
      "inputs": [
        {
          "internalType": "uint256",
          "name": "_tokens_number",
          "type": "uint256"
        }
      ],
      "name": "ReturnTokens",
      "outputs": [],
      "stateMutability": "nonpayable",
      "type": "function"
    },
    {
      "inputs": [
        {
          "internalType": "uint256",
          "name": "_tickets_number",
          "type": "uint256"
        },
        {
          "internalType": "address[]",
          "name": "_persons",
          "type": "address[]"
        }
      ],
      "name": "BuyTickets",
      "outputs": [],
      "stateMutability": "nonpayable",
      "type": "function"
    },
    {
      "inputs": [],
      "name": "GetPersons",
      "outputs": [
        {
          "internalType": "address[]",
          "name": "",
          "type": "address[]"
        }
      ],
      "stateMutability": "view",
      "type": "function",
      "constant": true
    },
    {
      "inputs": [],
      "name": "GetWinner",
      "outputs": [
        {
          "internalType": "address",
          "name": "",
          "type": "address"
        }
      ],
      "stateMutability": "view",
      "type": "function",
      "constant": true
    },
    {
      "inputs": [],
      "name": "MyTickets",
      "outputs": [
        {
          "internalType": "uint256[]",
          "name": "",
          "type": "uint256[]"
        }
      ],
      "stateMutability": "view",
      "type": "function",
      "constant": true
    },
    {
      "inputs": [
        {
          "internalType": "address[]",
          "name": "_persons",
          "type": "address[]"
        }
      ],
      "name": "GenerateWinner",
      "outputs": [],
      "stateMutability": "nonpayable",
      "type": "function"
    },
    {
      "inputs": [
        {
          "internalType": "address[]",
          "name": "_persons",
          "type": "address[]"
        }
      ],
      "name": "ReturnNotPlayedTokens",
      "outputs": [],
      "stateMutability": "nonpayable",
      "type": "function"
    }
  ],
  "bytecode": "0x60806040526101f460045560646005556008600655604b60075560046008556000600f553480156200003057600080fd5b50620f4240604051620000439062000196565b6200004f9190620001b5565b604051809103906000f0801580156200006c573d6000803e3d6000fd5b506000806101000a81548173ffffffffffffffffffffffffffffffffffffffff021916908373ffffffffffffffffffffffffffffffffffffffff16021790555033600160006101000a81548173ffffffffffffffffffffffffffffffffffffffff021916908373ffffffffffffffffffffffffffffffffffffffff16021790555030600260006101000a81548173ffffffffffffffffffffffffffffffffffffffff021916908373ffffffffffffffffffffffffffffffffffffffff1602179055506000809054906101000a900473ffffffffffffffffffffffffffffffffffffffff16600360006101000a81548173ffffffffffffffffffffffffffffffffffffffff021916908373ffffffffffffffffffffffffffffffffffffffff160217905550620001dc565b61109d8062002b0083390190565b620001af81620001d2565b82525050565b6000602082019050620001cc6000830184620001a4565b92915050565b6000819050919050565b61291480620001ec6000396000f3fe6080604052600436106100fe5760003560e01c8063966b351411610095578063b23fd3bd11610064578063b23fd3bd14610306578063b8621c7c1461032f578063d6adfe701461035a578063d996788914610383578063ef2d39a6146103c0576100fe565b8063966b35141461025c5780639f6c4e6c14610287578063a4e8aeb8146102b2578063ab6f1092146102dd576100fe565b80635dd59618116100d15780635dd59618146101b25780635e1d7514146101dd57806380edef8e146102065780638c8e8fee14610231576100fe565b806318aa870b1461010357806319d41c691461012e5780632548e85c146101595780634aff2c4e14610196575b600080fd5b34801561010f57600080fd5b506101186103e9565b6040516101259190612432565b60405180910390f35b34801561013a57600080fd5b50610143610477565b60405161015091906125f8565b60405180910390f35b34801561016557600080fd5b50610180600480360381019061017b9190611c3c565b61047d565b60405161018d91906125f8565b60405180910390f35b6101b060048036038101906101ab9190611b96565b610490565b005b3480156101be57600080fd5b506101c761066c565b6040516101d491906125f8565b60405180910390f35b3480156101e957600080fd5b5061020460048036038101906101ff9190611bd2565b61073f565b005b34801561021257600080fd5b5061021b610ad1565b6040516102289190612380565b60405180910390f35b34801561023d57600080fd5b50610246610af7565b6040516102539190612380565b60405180910390f35b34801561026857600080fd5b50610271610b1d565b60405161027e9190612380565b60405180910390f35b34801561029357600080fd5b5061029c610b43565b6040516102a99190612380565b60405180910390f35b3480156102be57600080fd5b506102c7610b6d565b6040516102d49190612454565b60405180910390f35b3480156102e957600080fd5b5061030460048036038101906102ff9190611c3c565b610c02565b005b34801561031257600080fd5b5061032d60048036038101906103289190611c3c565b610d23565b005b34801561033b57600080fd5b50610344610f0f565b60405161035191906125f8565b60405180910390f35b34801561036657600080fd5b50610381600480360381019061037c9190611bd2565b610fe2565b005b34801561038f57600080fd5b506103aa60048036038101906103a59190611b6d565b61128f565b6040516103b791906125f8565b60405180910390f35b3480156103cc57600080fd5b506103e760048036038101906103e29190611c8e565b611342565b005b6060600a80548060200260200160405190810160405280929190818152602001828054801561046d57602002820191906000526020600020905b8160009054906101000a900473ffffffffffffffffffffffffffffffffffffffff1673ffffffffffffffffffffffffffffffffffffffff1681526020019060010190808311610423575b5050505050905090565b60045481565b6000662386f26fc1000082029050919050565b600061049b8261047d565b9050803410156104e0576040517f08c379a00000000000000000000000000000000000000000000000000000000081526004016104d7906124d8565b60405180910390fd5b60006104ea610f0f565b90508083111561052f576040517f08c379a0000000000000000000000000000000000000000000000000000000008152600401610526906125d8565b60405180910390fd5b600082340390503373ffffffffffffffffffffffffffffffffffffffff166108fc829081150290604051600060405180830381858888f1935050505015801561057c573d6000803e3d6000fd5b506000809054906101000a900473ffffffffffffffffffffffffffffffffffffffff1673ffffffffffffffffffffffffffffffffffffffff1663a9059cbb86866040518363ffffffff1660e01b81526004016105d9929190612409565b602060405180830381600087803b1580156105f357600080fd5b505af1158015610607573d6000803e3d6000fd5b505050506040513d601f19601f8201168201806040525081019061062b9190611c13565b507f026ded15808850b7c1c4b5dd595d20a8a1da7becf94c6cab034e0cc67418287a848660405161065d929190612613565b60405180910390a15050505050565b60008060009054906101000a900473ffffffffffffffffffffffffffffffffffffffff1673ffffffffffffffffffffffffffffffffffffffff166370a08231600160009054906101000a900473ffffffffffffffffffffffffffffffffffffffff166040518263ffffffff1660e01b81526004016106ea9190612380565b60206040518083038186803b15801561070257600080fd5b505afa158015610716573d6000803e3d6000fd5b505050506040513d601f19601f8201168201806040525081019061073a9190611c65565b905090565b33600160009054906101000a900473ffffffffffffffffffffffffffffffffffffffff1673ffffffffffffffffffffffffffffffffffffffff168173ffffffffffffffffffffffffffffffffffffffff16146107d0576040517f08c379a00000000000000000000000000000000000000000000000000000000081526004016107c790612598565b60405180910390fd5b6000600b8054905011610818576040517f08c379a000000000000000000000000000000000000000000000000000000000815260040161080f90612498565b60405180910390fd5b6008548251101561085e576040517f08c379a0000000000000000000000000000000000000000000000000000000008152600401610855906125b8565b60405180910390fd5b6000600b8054905090506000814260405160200161087c9190612328565b6040516020818303038152906040528051906020012060001c8161089c57fe5b0690506000600b82815481106108ae57fe5b90600052602060002001549050600960006101000a81549073ffffffffffffffffffffffffffffffffffffffff0219169055600d600082815260200190815260200160002060009054906101000a900473ffffffffffffffffffffffffffffffffffffffff16600960006101000a81548173ffffffffffffffffffffffffffffffffffffffff021916908373ffffffffffffffffffffffffffffffffffffffff1602179055506000606461096061066c565b600754028161096b57fe5b0490506000809054906101000a900473ffffffffffffffffffffffffffffffffffffffff1673ffffffffffffffffffffffffffffffffffffffff1663beabacc8600160009054906101000a900473ffffffffffffffffffffffffffffffffffffffff16600960009054906101000a900473ffffffffffffffffffffffffffffffffffffffff16846040518463ffffffff1660e01b8152600401610a10939291906123d2565b602060405180830381600087803b158015610a2a57600080fd5b505af1158015610a3e573d6000803e3d6000fd5b505050506040513d601f19601f82011682018060405250810190610a629190611c13565b507fb7feecc2ca3e3d31a8ca58973a3bb8e2dbb8d3c878aace0fdf224ab5dfeaee3182600960009054906101000a900473ffffffffffffffffffffffffffffffffffffffff1683604051610ab893929190612665565b60405180910390a1610ac986611851565b505050505050565b600160009054906101000a900473ffffffffffffffffffffffffffffffffffffffff1681565b600360009054906101000a900473ffffffffffffffffffffffffffffffffffffffff1681565b600260009054906101000a900473ffffffffffffffffffffffffffffffffffffffff1681565b6000600960009054906101000a900473ffffffffffffffffffffffffffffffffffffffff16905090565b6060600c60003373ffffffffffffffffffffffffffffffffffffffff1673ffffffffffffffffffffffffffffffffffffffff168152602001908152602001600020805480602002602001604051908101604052809291908181526020018280548015610bf857602002820191906000526020600020905b815481526020019060010190808311610be4575b5050505050905090565b33600160009054906101000a900473ffffffffffffffffffffffffffffffffffffffff1673ffffffffffffffffffffffffffffffffffffffff168173ffffffffffffffffffffffffffffffffffffffff1614610c93576040517f08c379a0000000000000000000000000000000000000000000000000000000008152600401610c8a90612598565b60405180910390fd5b6000809054906101000a900473ffffffffffffffffffffffffffffffffffffffff1673ffffffffffffffffffffffffffffffffffffffff16631d43cc98836040518263ffffffff1660e01b8152600401610ced91906125f8565b600060405180830381600087803b158015610d0757600080fd5b505af1158015610d1b573d6000803e3d6000fd5b505050505050565b60008111610d66576040517f08c379a0000000000000000000000000000000000000000000000000000000008152600401610d5d90612518565b60405180910390fd5b610d6f3361128f565b811115610db1576040517f08c379a0000000000000000000000000000000000000000000000000000000008152600401610da8906124b8565b60405180910390fd5b6000809054906101000a900473ffffffffffffffffffffffffffffffffffffffff1673ffffffffffffffffffffffffffffffffffffffff1663beabacc833600260009054906101000a900473ffffffffffffffffffffffffffffffffffffffff16846040518463ffffffff1660e01b8152600401610e319392919061239b565b602060405180830381600087803b158015610e4b57600080fd5b505af1158015610e5f573d6000803e3d6000fd5b505050506040513d601f19601f82011682018060405250810190610e839190611c13565b503373ffffffffffffffffffffffffffffffffffffffff166108fc610ea78361047d565b9081150290604051600060405180830381858888f19350505050158015610ed2573d6000803e3d6000fd5b507ff01573a394726fdf924e6e4e082e4dd04f02d0a89c044b6a34714b0a1f4692758133604051610f0492919061263c565b60405180910390a150565b60008060009054906101000a900473ffffffffffffffffffffffffffffffffffffffff1673ffffffffffffffffffffffffffffffffffffffff166370a08231600260009054906101000a900473ffffffffffffffffffffffffffffffffffffffff166040518263ffffffff1660e01b8152600401610f8d9190612380565b60206040518083038186803b158015610fa557600080fd5b505afa158015610fb9573d6000803e3d6000fd5b505050506040513d601f19601f82011682018060405250810190610fdd9190611c65565b905090565b33600160009054906101000a900473ffffffffffffffffffffffffffffffffffffffff1673ffffffffffffffffffffffffffffffffffffffff168173ffffffffffffffffffffffffffffffffffffffff1614611073576040517f08c379a000000000000000000000000000000000000000000000000000000000815260040161106a90612598565b60405180910390fd5b6008548251106110b8576040517f08c379a00000000000000000000000000000000000000000000000000000000081526004016110af906124f8565b60405180910390fd5b60008090505b82518110156112815760008382815181106110d557fe5b602002602001015190506000600e60008373ffffffffffffffffffffffffffffffffffffffff1673ffffffffffffffffffffffffffffffffffffffff16815260200190815260200160002054905060008111611166576040517f08c379a000000000000000000000000000000000000000000000000000000000815260040161115d90612518565b60405180910390fd5b6000809054906101000a900473ffffffffffffffffffffffffffffffffffffffff1673ffffffffffffffffffffffffffffffffffffffff1663beabacc8600160009054906101000a900473ffffffffffffffffffffffffffffffffffffffff1684846040518463ffffffff1660e01b81526004016111e6939291906123d2565b602060405180830381600087803b15801561120057600080fd5b505af1158015611214573d6000803e3d6000fd5b505050506040513d601f19601f820116820180604052508101906112389190611c13565b507fa0ff2833112380071c7049dc505ed654bb3e423e98142859bfb948773229170d818360405161126a929190612613565b60405180910390a1505080806001019150506110be565b5061128b82611851565b5050565b60008060009054906101000a900473ffffffffffffffffffffffffffffffffffffffff1673ffffffffffffffffffffffffffffffffffffffff166370a08231836040518263ffffffff1660e01b81526004016112eb9190612380565b60206040518083038186803b15801561130357600080fd5b505afa158015611317573d6000803e3d6000fd5b505050506040513d601f19601f8201168201806040525081019061133b9190611c65565b9050919050565b33600160009054906101000a900473ffffffffffffffffffffffffffffffffffffffff1673ffffffffffffffffffffffffffffffffffffffff168173ffffffffffffffffffffffffffffffffffffffff1614156113d4576040517f08c379a00000000000000000000000000000000000000000000000000000000081526004016113cb90612598565b60405180910390fd5b60008311611417576040517f08c379a000000000000000000000000000000000000000000000000000000000815260040161140e90612538565b60405180910390fd5b600554600b8054905010611460576040517f08c379a000000000000000000000000000000000000000000000000000000000815260040161145790612558565b60405180910390fd5b6000600b805490506005540390508084111561147b826118eb565b60405160200161148b91906122fb565b604051602081830303815290604052906114db576040517f08c379a00000000000000000000000000000000000000000000000000000000081526004016114d29190612476565b60405180910390fd5b506000600454850290506114ee3361128f565b811115611530576040517f08c379a000000000000000000000000000000000000000000000000000000000815260040161152790612578565b60405180910390fd5b6000809054906101000a900473ffffffffffffffffffffffffffffffffffffffff1673ffffffffffffffffffffffffffffffffffffffff1663beabacc833600160009054906101000a900473ffffffffffffffffffffffffffffffffffffffff16846040518463ffffffff1660e01b81526004016115b09392919061239b565b602060405180830381600087803b1580156115ca57600080fd5b505af11580156115de573d6000803e3d6000fd5b505050506040513d601f19601f820116820180604052508101906116029190611c13565b506008548451101561165c5780600e60003373ffffffffffffffffffffffffffffffffffffffff1673ffffffffffffffffffffffffffffffffffffffff168152602001908152602001600020600082825401925050819055505b600a339080600181540180825580915050600190039060005260206000200160009091909190916101000a81548173ffffffffffffffffffffffffffffffffffffffff021916908373ffffffffffffffffffffffffffffffffffffffff16021790555060008090505b85811015611849576000600654600a0a4233600f546040516020016116ec93929190612343565b6040516020818303038152906040528051906020012060001c8161170c57fe5b069050600f60008154809291906001019190505550600c60003373ffffffffffffffffffffffffffffffffffffffff1673ffffffffffffffffffffffffffffffffffffffff168152602001908152602001600020819080600181540180825580915050600190039060005260206000200160009091909190915055600b81908060018154018082558091505060019003906000526020600020016000909190919091505533600d600083815260200190815260200160002060006101000a81548173ffffffffffffffffffffffffffffffffffffffff021916908373ffffffffffffffffffffffffffffffffffffffff1602179055507fb56caeddd580b00c78feed3698a6c84b3e1c9a42ca52ee2f894e1361b786c210813360405161183392919061263c565b60405180910390a15080806001019150506116c5565b505050505050565b60008090505b81518110156118cb57600c600083838151811061187057fe5b602002602001015173ffffffffffffffffffffffffffffffffffffffff1673ffffffffffffffffffffffffffffffffffffffff16815260200190815260200160002060006118be9190611a2f565b8080600101915050611857565b50600b60006118da9190611a2f565b600a60006118e89190611a50565b50565b60606000821415611933576040518060400160405280600181526020017f30000000000000000000000000000000000000000000000000000000000000008152509050611a2a565b600082905060005b6000821461195d578080600101915050600a828161195557fe5b04915061193b565b60608167ffffffffffffffff8111801561197657600080fd5b506040519080825280601f01601f1916602001820160405280156119a95781602001600182028036833780820191505090505b50905060008290508593505b60008414611a2257600a84816119c757fe5b0660300160f81b828260019003925082815181106119e157fe5b60200101907effffffffffffffffffffffffffffffffffffffffffffffffffffffffffffff1916908160001a905350600a8481611a1a57fe5b0493506119b5565b819450505050505b919050565b5080546000825590600052602060002090810190611a4d9190611a71565b50565b5080546000825590600052602060002090810190611a6e9190611a71565b50565b611a9391905b80821115611a8f576000816000905550600101611a77565b5090565b90565b600081359050611aa581612899565b92915050565b600082601f830112611abc57600080fd5b8135611acf611aca826126c9565b61269c565b91508181835260208401935060208101905083856020840282011115611af457600080fd5b60005b83811015611b245781611b0a8882611a96565b845260208401935060208301925050600181019050611af7565b5050505092915050565b600081519050611b3d816128b0565b92915050565b600081359050611b52816128c7565b92915050565b600081519050611b67816128c7565b92915050565b600060208284031215611b7f57600080fd5b6000611b8d84828501611a96565b91505092915050565b60008060408385031215611ba957600080fd5b6000611bb785828601611a96565b9250506020611bc885828601611b43565b9150509250929050565b600060208284031215611be457600080fd5b600082013567ffffffffffffffff811115611bfe57600080fd5b611c0a84828501611aab565b91505092915050565b600060208284031215611c2557600080fd5b6000611c3384828501611b2e565b91505092915050565b600060208284031215611c4e57600080fd5b6000611c5c84828501611b43565b91505092915050565b600060208284031215611c7757600080fd5b6000611c8584828501611b58565b91505092915050565b60008060408385031215611ca157600080fd5b6000611caf85828601611b43565b925050602083013567ffffffffffffffff811115611ccc57600080fd5b611cd885828601611aab565b9150509250929050565b6000611cee8383611d38565b60208301905092915050565b6000611d0683836122c6565b60208301905092915050565b611d1b816127e4565b82525050565b611d32611d2d8261279c565b61284d565b82525050565b611d418161278a565b82525050565b611d508161278a565b82525050565b6000611d6182612711565b611d6b818561274c565b9350611d76836126f1565b8060005b83811015611da7578151611d8e8882611ce2565b9750611d9983612732565b925050600181019050611d7a565b5085935050505092915050565b6000611dbf8261271c565b611dc9818561275d565b9350611dd483612701565b8060005b83811015611e05578151611dec8882611cfa565b9750611df78361273f565b925050600181019050611dd8565b5085935050505092915050565b6000611e1d82612727565b611e27818561276e565b9350611e3781856020860161281a565b611e408161287b565b840191505092915050565b6000611e5682612727565b611e60818561277f565b9350611e7081856020860161281a565b80840191505092915050565b6000611e8960128361276e565b91507f54686572652773206e6f207469636b65747300000000000000000000000000006000830152602082019050919050565b6000611ec9600f8361277f565b91507f207469636b6574287329206c65667400000000000000000000000000000000006000830152600f82019050919050565b6000611f0960318361276e565b91507f596f7520646f6e277420686176652074686520746f6b656e732074686174207960008301527f6f752077616e7420746f2072657475726e0000000000000000000000000000006020830152604082019050919050565b6000611f6f60278361276e565b91507f427579206c65737320746f6b656e73206f72207061792077697468206d6f726560008301527f20657468657273000000000000000000000000000000000000000000000000006020830152604082019050919050565b6000611fd560238361276e565b91507f4d696e696d756d207175616e74697479206f6620706572736f6e73207265616360008301527f68656400000000000000000000000000000000000000000000000000000000006020830152604082019050919050565b600061203b602e8361276e565b91507f596f75206e65656420746f2072657475726e206120706f736974697665206e7560008301527f6d626572206f6620746f6b656e730000000000000000000000000000000000006020830152604082019050919050565b60006120a160248361276e565b91507f456e7465722061207469636b6574206e756d62657220706f736974697665207660008301527f616c7565000000000000000000000000000000000000000000000000000000006020830152604082019050919050565b6000612107601e8361276e565b91507f54686572652773206e6f206d6f7265207469636b65747320746f2062757900006000830152602082019050919050565b600061214760148361276e565b91507f596f75206e656564206d6f726520746f6b656e730000000000000000000000006000830152602082019050919050565b6000612187602b8361276e565b91507f5065726d697373696f6e732064656e69656420746f206578656375746520746860008301527f69732066756e6374696f6e0000000000000000000000000000000000000000006020830152604082019050919050565b60006121ed60278361276e565b91507f4d696e696d756d207175616e74697479206f6620706572736f6e73206e6f742060008301527f72656163686564000000000000000000000000000000000000000000000000006020830152604082019050919050565b6000612253600f8361276e565b91507f427579206c65737320746f6b656e7300000000000000000000000000000000006000830152602082019050919050565b600061229360058361277f565b91507f4f6e6c79200000000000000000000000000000000000000000000000000000006000830152600582019050919050565b6122cf816127da565b82525050565b6122de816127da565b82525050565b6122f56122f0826127da565b612871565b82525050565b600061230682612286565b91506123128284611e4b565b915061231d82611ebc565b915081905092915050565b600061233482846122e4565b60208201915081905092915050565b600061234f82866122e4565b60208201915061235f8285611d21565b60148201915061236f82846122e4565b602082019150819050949350505050565b60006020820190506123956000830184611d47565b92915050565b60006060820190506123b06000830186611d12565b6123bd6020830185611d47565b6123ca60408301846122d5565b949350505050565b60006060820190506123e76000830186611d47565b6123f46020830185611d47565b61240160408301846122d5565b949350505050565b600060408201905061241e6000830185611d47565b61242b60208301846122d5565b9392505050565b6000602082019050818103600083015261244c8184611d56565b905092915050565b6000602082019050818103600083015261246e8184611db4565b905092915050565b600060208201905081810360008301526124908184611e12565b905092915050565b600060208201905081810360008301526124b181611e7c565b9050919050565b600060208201905081810360008301526124d181611efc565b9050919050565b600060208201905081810360008301526124f181611f62565b9050919050565b6000602082019050818103600083015261251181611fc8565b9050919050565b600060208201905081810360008301526125318161202e565b9050919050565b6000602082019050818103600083015261255181612094565b9050919050565b60006020820190508181036000830152612571816120fa565b9050919050565b600060208201905081810360008301526125918161213a565b9050919050565b600060208201905081810360008301526125b18161217a565b9050919050565b600060208201905081810360008301526125d1816121e0565b9050919050565b600060208201905081810360008301526125f181612246565b9050919050565b600060208201905061260d60008301846122d5565b92915050565b600060408201905061262860008301856122d5565b6126356020830184611d47565b9392505050565b600060408201905061265160008301856122d5565b61265e6020830184611d12565b9392505050565b600060608201905061267a60008301866122d5565b6126876020830185611d47565b61269460408301846122d5565b949350505050565b6000604051905081810181811067ffffffffffffffff821117156126bf57600080fd5b8060405250919050565b600067ffffffffffffffff8211156126e057600080fd5b602082029050602081019050919050565b6000819050602082019050919050565b6000819050602082019050919050565b600081519050919050565b600081519050919050565b600081519050919050565b6000602082019050919050565b6000602082019050919050565b600082825260208201905092915050565b600082825260208201905092915050565b600082825260208201905092915050565b600081905092915050565b6000612795826127ba565b9050919050565b60006127a7826127ba565b9050919050565b60008115159050919050565b600073ffffffffffffffffffffffffffffffffffffffff82169050919050565b6000819050919050565b60006127ef826127f6565b9050919050565b600061280182612808565b9050919050565b6000612813826127ba565b9050919050565b60005b8381101561283857808201518184015260208101905061281d565b83811115612847576000848401525b50505050565b60006128588261285f565b9050919050565b600061286a8261288c565b9050919050565b6000819050919050565b6000601f19601f8301169050919050565b60008160601b9050919050565b6128a28161278a565b81146128ad57600080fd5b50565b6128b9816127ae565b81146128c457600080fd5b50565b6128d0816127da565b81146128db57600080fd5b5056fea2646970667358221220d03e05864aa220912338d9a888ab8865013c48e9dff8f6fda31fcf870379e58764736f6c63430006080033608060405234801561001057600080fd5b5060405161109d38038061109d83398181016040528101906100329190610099565b806002819055506002546000803373ffffffffffffffffffffffffffffffffffffffff1673ffffffffffffffffffffffffffffffffffffffff16815260200190815260200160002081905550506100e3565b600081519050610093816100cc565b92915050565b6000602082840312156100ab57600080fd5b60006100b984828501610084565b91505092915050565b6000819050919050565b6100d5816100c2565b81146100e057600080fd5b50565b610fab806100f26000396000f3fe608060405234801561001057600080fd5b50600436106100a95760003560e01c8063313ce56711610071578063313ce5671461016657806370a082311461018457806395d89b41146101b4578063a9059cbb146101d2578063beabacc814610202578063dd62ed3e14610232576100a9565b806306fdde03146100ae578063095ea7b3146100cc57806318160ddd146100fc5780631d43cc981461011a57806323b872dd14610136575b600080fd5b6100b6610262565b6040516100c39190610e3a565b60405180910390f35b6100e660048036038101906100e19190610d54565b61029b565b6040516100f39190610e1f565b60405180910390f35b61010461038d565b6040516101119190610e5c565b60405180910390f35b610134600480360381019061012f9190610d90565b610397565b005b610150600480360381019061014b9190610d05565b6103f6565b60405161015d9190610e1f565b60405180910390f35b61016e610771565b60405161017b9190610e77565b60405180910390f35b61019e60048036038101906101999190610ca0565b610776565b6040516101ab9190610e5c565b60405180910390f35b6101bc6107be565b6040516101c99190610e3a565b60405180910390f35b6101ec60048036038101906101e79190610d54565b6107f7565b6040516101f99190610e1f565b60405180910390f35b61021c60048036038101906102179190610d05565b6109d9565b6040516102299190610e1f565b60405180910390f35b61024c60048036038101906102479190610cc9565b610bbc565b6040516102599190610e5c565b60405180910390f35b6040518060400160405280601181526020017f4552433230426c6f636b636861696e415a00000000000000000000000000000081525081565b600081600160003373ffffffffffffffffffffffffffffffffffffffff1673ffffffffffffffffffffffffffffffffffffffff16815260200190815260200160002060008573ffffffffffffffffffffffffffffffffffffffff1673ffffffffffffffffffffffffffffffffffffffff168152602001908152602001600020819055508273ffffffffffffffffffffffffffffffffffffffff163373ffffffffffffffffffffffffffffffffffffffff167f8c5be1e5ebec7d5bd14f71427d1e84f3dd0314c0f7b2291e5b200ac8c7c3b9258460405161037b9190610e5c565b60405180910390a36001905092915050565b6000600254905090565b80600260008282540192505081905550806000803373ffffffffffffffffffffffffffffffffffffffff1673ffffffffffffffffffffffffffffffffffffffff1681526020019081526020016000206000828254019250508190555050565b60008060008573ffffffffffffffffffffffffffffffffffffffff1673ffffffffffffffffffffffffffffffffffffffff1681526020019081526020016000205482111561044357600080fd5b600160008573ffffffffffffffffffffffffffffffffffffffff1673ffffffffffffffffffffffffffffffffffffffff16815260200190815260200160002060003373ffffffffffffffffffffffffffffffffffffffff1673ffffffffffffffffffffffffffffffffffffffff168152602001908152602001600020548211156104cc57600080fd5b61051d826000808773ffffffffffffffffffffffffffffffffffffffff1673ffffffffffffffffffffffffffffffffffffffff16815260200190815260200160002054610c4390919063ffffffff16565b6000808673ffffffffffffffffffffffffffffffffffffffff1673ffffffffffffffffffffffffffffffffffffffff168152602001908152602001600020819055506105ee82600160008773ffffffffffffffffffffffffffffffffffffffff1673ffffffffffffffffffffffffffffffffffffffff16815260200190815260200160002060003373ffffffffffffffffffffffffffffffffffffffff1673ffffffffffffffffffffffffffffffffffffffff16815260200190815260200160002054610c4390919063ffffffff16565b600160008673ffffffffffffffffffffffffffffffffffffffff1673ffffffffffffffffffffffffffffffffffffffff16815260200190815260200160002060003373ffffffffffffffffffffffffffffffffffffffff1673ffffffffffffffffffffffffffffffffffffffff168152602001908152602001600020819055506106bf826000808673ffffffffffffffffffffffffffffffffffffffff1673ffffffffffffffffffffffffffffffffffffffff16815260200190815260200160002054610c5a90919063ffffffff16565b6000808573ffffffffffffffffffffffffffffffffffffffff1673ffffffffffffffffffffffffffffffffffffffff168152602001908152602001600020819055508273ffffffffffffffffffffffffffffffffffffffff168473ffffffffffffffffffffffffffffffffffffffff167fddf252ad1be2c89b69c2b068fc378daa952ba7f163c4a11628f55a4df523b3ef8460405161075e9190610e5c565b60405180910390a3600190509392505050565b600281565b60008060008373ffffffffffffffffffffffffffffffffffffffff1673ffffffffffffffffffffffffffffffffffffffff168152602001908152602001600020549050919050565b6040518060400160405280600381526020017f455243000000000000000000000000000000000000000000000000000000000081525081565b60008060003373ffffffffffffffffffffffffffffffffffffffff1673ffffffffffffffffffffffffffffffffffffffff1681526020019081526020016000205482111561084457600080fd5b610895826000803373ffffffffffffffffffffffffffffffffffffffff1673ffffffffffffffffffffffffffffffffffffffff16815260200190815260200160002054610c4390919063ffffffff16565b6000803373ffffffffffffffffffffffffffffffffffffffff1673ffffffffffffffffffffffffffffffffffffffff16815260200190815260200160002081905550610928826000808673ffffffffffffffffffffffffffffffffffffffff1673ffffffffffffffffffffffffffffffffffffffff16815260200190815260200160002054610c5a90919063ffffffff16565b6000808573ffffffffffffffffffffffffffffffffffffffff1673ffffffffffffffffffffffffffffffffffffffff168152602001908152602001600020819055508273ffffffffffffffffffffffffffffffffffffffff163373ffffffffffffffffffffffffffffffffffffffff167fddf252ad1be2c89b69c2b068fc378daa952ba7f163c4a11628f55a4df523b3ef846040516109c79190610e5c565b60405180910390a36001905092915050565b60008060008573ffffffffffffffffffffffffffffffffffffffff1673ffffffffffffffffffffffffffffffffffffffff16815260200190815260200160002054821115610a2657600080fd5b610a77826000808773ffffffffffffffffffffffffffffffffffffffff1673ffffffffffffffffffffffffffffffffffffffff16815260200190815260200160002054610c4390919063ffffffff16565b6000808673ffffffffffffffffffffffffffffffffffffffff1673ffffffffffffffffffffffffffffffffffffffff16815260200190815260200160002081905550610b0a826000808673ffffffffffffffffffffffffffffffffffffffff1673ffffffffffffffffffffffffffffffffffffffff16815260200190815260200160002054610c5a90919063ffffffff16565b6000808573ffffffffffffffffffffffffffffffffffffffff1673ffffffffffffffffffffffffffffffffffffffff168152602001908152602001600020819055508273ffffffffffffffffffffffffffffffffffffffff168473ffffffffffffffffffffffffffffffffffffffff167fddf252ad1be2c89b69c2b068fc378daa952ba7f163c4a11628f55a4df523b3ef84604051610ba99190610e5c565b60405180910390a3600190509392505050565b6000600160008473ffffffffffffffffffffffffffffffffffffffff1673ffffffffffffffffffffffffffffffffffffffff16815260200190815260200160002060008373ffffffffffffffffffffffffffffffffffffffff1673ffffffffffffffffffffffffffffffffffffffff16815260200190815260200160002054905092915050565b600082821115610c4f57fe5b818303905092915050565b600080828401905083811015610c6c57fe5b8091505092915050565b600081359050610c8581610f47565b92915050565b600081359050610c9a81610f5e565b92915050565b600060208284031215610cb257600080fd5b6000610cc084828501610c76565b91505092915050565b60008060408385031215610cdc57600080fd5b6000610cea85828601610c76565b9250506020610cfb85828601610c76565b9150509250929050565b600080600060608486031215610d1a57600080fd5b6000610d2886828701610c76565b9350506020610d3986828701610c76565b9250506040610d4a86828701610c8b565b9150509250925092565b60008060408385031215610d6757600080fd5b6000610d7585828601610c76565b9250506020610d8685828601610c8b565b9150509250929050565b600060208284031215610da257600080fd5b6000610db084828501610c8b565b91505092915050565b610dc281610ec0565b82525050565b6000610dd382610e92565b610ddd8185610e9d565b9350610ded818560208601610f03565b610df681610f36565b840191505092915050565b610e0a81610eec565b82525050565b610e1981610ef6565b82525050565b6000602082019050610e346000830184610db9565b92915050565b60006020820190508181036000830152610e548184610dc8565b905092915050565b6000602082019050610e716000830184610e01565b92915050565b6000602082019050610e8c6000830184610e10565b92915050565b600081519050919050565b600082825260208201905092915050565b6000610eb982610ecc565b9050919050565b60008115159050919050565b600073ffffffffffffffffffffffffffffffffffffffff82169050919050565b6000819050919050565b600060ff82169050919050565b60005b83811015610f21578082015181840152602081019050610f06565b83811115610f30576000848401525b50505050565b6000601f19601f8301169050919050565b610f5081610eae565b8114610f5b57600080fd5b50565b610f6781610eec565b8114610f7257600080fd5b5056fea2646970667358221220460e4eb7e0988dc31885d973d2d4f362c0f762935f7ae2de8d76bb7c74d9b10064736f6c63430006080033",
  "immutableReferences": {},
  "source": "// SPDX-License-Identifier: MIT\npragma solidity > 0.4.4 < 0.8.0;\npragma experimental ABIEncoderV2;\n\nimport \"./ERC20.sol\";\nimport \"./uint2string.sol\";\n\ncontract Lotery {\n    using operations for uint;\n\n    // Contract's Token instance\n    ERC20Basic private token;\n\n    address public owner_address;\n    address public contract_address;\n    address public token_address;\n\n    // Token's number to create\n    uint private constant created_tokens = 1000000;\n\n    // Token events\n    event buying_tokens(uint, address);\n    event returned_tokens(uint, address);\n\n    constructor() public {\n        token = new ERC20Basic(created_tokens);\n        owner_address = msg.sender;\n        contract_address = address(this);\n        token_address = address(token);\n    }\n\n    // Modifier to make functions only accesible by the contract's owner \n    modifier OnlyBy(address _address) {\n        require(_address == owner_address, \"Permissions denied to execute this function\");\n        _;\n    }\n\n    // Modifier to make functions not accesible by the contract's owner \n    modifier NotBy(address _address) {\n        require(_address != owner_address, \"Permissions denied to execute this function\");\n        _;\n    }\n\n    // ----------------------------- TOKEN -------------------------------------------\n\n    function TokensPrice(uint _tokens_number) public pure returns(uint) {\n        return _tokens_number * (0.01 ether);\n    }\n\n    // Generate more tokens by the lotery\n    function GenerateTokens(uint _tokens_number) public OnlyBy(msg.sender) {\n        token.increaseTotalSupply(_tokens_number);\n    }\n\n    // Buy tokens to buy lotery's tickets\n    function BuyTokens(address _to, uint _tokens_number) public payable {\n        uint cost = TokensPrice(_tokens_number);\n        require(msg.value >= cost, \"Buy less tokens or pay with more ethers\");\n        uint balance = AvailableTokens();\n        require(_tokens_number <= balance, \"Buy less tokens\");\n        uint return_value = msg.value - cost;\n        msg.sender.transfer(return_value);\n        token.transfer(_to, _tokens_number);\n        emit buying_tokens(_tokens_number, _to);\n    }\n\n    // Tokens' balance in the lotery's contract\n    function AvailableTokens() public view returns(uint) {\n        return token.balanceOf(contract_address);\n    }\n\n    // Get the acumulated tokens' balance in the bucket\n    function TokensBucket() public view returns(uint) {\n        return token.balanceOf(owner_address);\n    }\n\n    // Tokens' balance of a person\n    function BalanceOf(address _address) public view returns(uint) {\n        return token.balanceOf(_address);\n    }\n    \n    // Tokens return\n    function ReturnTokens(uint _tokens_number) public {\n        // The number of tokens must be greater than zero \n        require(_tokens_number > 0, \"You need to return a positive number of tokens\");\n        // The user / client has to have the desire quantity of tokens to return\n        require(_tokens_number <= BalanceOf(msg.sender), \"You don't have the tokens that you want to return\");\n        token.transfer(msg.sender, contract_address, _tokens_number);\n        msg.sender.transfer(TokensPrice(_tokens_number));\n        emit returned_tokens(_tokens_number, msg.sender);\n    }\n\n    // ----------------------------- LOTERY -------------------------------------------\n\n    // Ticket's price\n    uint public ticket_price = 500;\n    // Total tickets\n    uint total_tickets = 100;\n    // Tickets digits\n    uint tickets_digits = 8;\n    // Percent to the winner\n    uint winner_percent = 75;\n    // Minimum quantity of persons \n    uint minimun_quantity = 4;\n    address winner_address;\n\n    address[] persons;\n    // Generated tickets\n    uint[] bought_tickets;\n\n    // Relation between the person who buy the tickets and the tickets' numbers\n    mapping(address => uint[]) person_tickets;\n    // Relation needed to identify the winner\n    mapping(uint => address) ticket_person;\n    mapping(address => uint) person_tokens;\n\n    // Random number\n    uint rand_nonce = 0;\n\n    // Events\n    event bought_ticket(uint, address);\n    event winner_ticket(uint election, address winner, uint tokens);\n    event returned_not_played_tokens(uint, address);\n\n    // Function to buy lotery's tickets\n    function BuyTickets(uint _tickets_number, address[] memory _persons) public NotBy(msg.sender) {\n        require(_tickets_number > 0, \"Enter a ticket number positive value\");\n        require(bought_tickets.length < total_tickets, \"There's no more tickets to buy\");\n        uint available_tickets = total_tickets - bought_tickets.length;\n        require(_tickets_number <= available_tickets, string(abi.encodePacked(\"Only \", available_tickets.uint2str(), \" ticket(s) left\")));\n        // Total tickets' price to buy\n        \n        uint total_tokens = _tickets_number * ticket_price;\n        require(total_tokens <= BalanceOf(msg.sender), \"You need more tokens\");\n\n        // Tokens transfer to the owner\n        token.transfer(msg.sender, owner_address, total_tokens);\n        \n        if (_persons.length < minimun_quantity) {\n            person_tokens[msg.sender] += total_tokens;\n        }\n        \n        /*\n        What this does is to take the timestamp, the msg.sender and a nonce (a number\n        that is only used once, to prevent this function to be executed twice with the\n        same input parameters) at increment. Then, the function keccak256 is used to\n        convert these inputs to a random hash, convert this hash to an uint and then\n        we divide the result by 10000 to take the last 4 digits, giving a number between\n        0 and 9999.\n        */\n\n        persons.push(msg.sender);\n\n        for (uint i = 0; i < _tickets_number; i++) {\n            uint random = uint(keccak256(abi.encodePacked(now, msg.sender, rand_nonce))) % 10 ** tickets_digits;\n            rand_nonce++;\n            // Store the tickets' data\n            person_tickets[msg.sender].push(random);\n            bought_tickets.push(random);\n            ticket_person[random] = msg.sender;\n            emit bought_ticket(random, msg.sender);\n        }\n    }\n\n    function GetPersons() public view returns(address[] memory) {\n        return persons;\n    }\n\n    function GetWinner() public view returns(address) {\n        return winner_address;\n    }\n\n    // Visualize a person's tickets number\n    function MyTickets() public view returns(uint[] memory) {\n        return person_tickets[msg.sender];\n    }\n\n    function DeleteData(address[] memory _persons) private {\n        for (uint i=0; i < _persons.length; i++) {\n            delete person_tickets[_persons[i]];\n        }\n\n        delete bought_tickets;\n        delete persons;\n    }\n\n    // Function to generate a winner and pay to him the prize\n    function GenerateWinner(address[] memory _persons) public OnlyBy(msg.sender) {\n        // Must be bought tickets to generate a winner\n        require(bought_tickets.length > 0, \"There's no tickets\");\n        require(_persons.length >= minimun_quantity, \"Minimum quantity of persons not reached\");\n        uint array_length = bought_tickets.length;\n        uint position = uint(uint(keccak256(abi.encodePacked(now))) % array_length);\n        uint election = bought_tickets[position];\n        // Get the winner address\n        delete winner_address;\n        winner_address = ticket_person[election];\n        uint tokens_bucket = winner_percent * TokensBucket() / 100;\n        token.transfer(owner_address, winner_address, tokens_bucket);\n        emit winner_ticket(election, winner_address, tokens_bucket);\n        DeleteData(_persons);\n    }\n\n    function ReturnNotPlayedTokens(address[] memory _persons) public OnlyBy(msg.sender) {\n        require(_persons.length < minimun_quantity, \"Minimum quantity of persons reached\");\n\n        for (uint i = 0; i < _persons.length ;i++) {\n            address person_address = _persons[i];\n            uint tokens_number = person_tokens[person_address];\n            require(tokens_number > 0, \"You need to return a positive number of tokens\");\n            token.transfer(owner_address, person_address, tokens_number);\n            emit returned_not_played_tokens(tokens_number, person_address);\n        }\n\n        DeleteData(_persons);\n    }\n}",
  "sourcePath": "/Users/martins/Projects/truffle-p/lotery/src/contracts/Lotery.sol",
  "compiler": {
    "name": "solc",
    "version": "0.6.8+commit.0bbfe453.Emscripten.clang"
  },
  "schemaVersion": "3.4.4",
  "updatedAt": "2022-01-06T02:23:00.726Z",
  "networkType": "ethereum",
  "devdoc": {
    "methods": {}
  },
  "userdoc": {
    "methods": {}
  }
}